{
  "_format": "hh-sol-artifact-1",
  "contractName": "PropVeraFractionalToken",
  "sourceName": "contracts/PropVeraFractionalToken.sol",
  "abi": [
    {
      "inputs": [],
      "stateMutability": "nonpayable",
      "type": "constructor"
    },
    {
      "inputs": [],
      "name": "NotAuthorized",
      "type": "error"
    },
    {
      "anonymous": false,
      "inputs": [
        {
          "indexed": true,
          "internalType": "address",
          "name": "owner",
          "type": "address"
        },
        {
          "indexed": true,
          "internalType": "address",
          "name": "spender",
          "type": "address"
        },
        {
          "indexed": false,
          "internalType": "uint256",
          "name": "value",
          "type": "uint256"
        }
      ],
      "name": "Approval",
      "type": "event"
    },
    {
      "anonymous": false,
      "inputs": [
        {
          "indexed": true,
          "internalType": "address",
          "name": "previousOwner",
          "type": "address"
        },
        {
          "indexed": true,
          "internalType": "address",
          "name": "newOwner",
          "type": "address"
        }
      ],
      "name": "OwnershipTransferred",
      "type": "event"
    },
    {
      "anonymous": false,
      "inputs": [
        {
          "indexed": true,
          "internalType": "address",
          "name": "from",
          "type": "address"
        },
        {
          "indexed": true,
          "internalType": "address",
          "name": "to",
          "type": "address"
        },
        {
          "indexed": false,
          "internalType": "uint256",
          "name": "value",
          "type": "uint256"
        }
      ],
      "name": "Transfer",
      "type": "event"
    },
    {
      "inputs": [
        {
          "internalType": "address",
          "name": "owner",
          "type": "address"
        },
        {
          "internalType": "address",
          "name": "spender",
          "type": "address"
        }
      ],
      "name": "allowance",
      "outputs": [
        {
          "internalType": "uint256",
          "name": "",
          "type": "uint256"
        }
      ],
      "stateMutability": "view",
      "type": "function"
    },
    {
      "inputs": [
        {
          "internalType": "address",
          "name": "spender",
          "type": "address"
        },
        {
          "internalType": "uint256",
          "name": "amount",
          "type": "uint256"
        }
      ],
      "name": "approve",
      "outputs": [
        {
          "internalType": "bool",
          "name": "",
          "type": "bool"
        }
      ],
      "stateMutability": "nonpayable",
      "type": "function"
    },
    {
      "inputs": [
        {
          "internalType": "address",
          "name": "account",
          "type": "address"
        }
      ],
      "name": "balanceOf",
      "outputs": [
        {
          "internalType": "uint256",
          "name": "",
          "type": "uint256"
        }
      ],
      "stateMutability": "view",
      "type": "function"
    },
    {
      "inputs": [],
      "name": "decimals",
      "outputs": [
        {
          "internalType": "uint8",
          "name": "",
          "type": "uint8"
        }
      ],
      "stateMutability": "view",
      "type": "function"
    },
    {
      "inputs": [
        {
          "internalType": "address",
          "name": "spender",
          "type": "address"
        },
        {
          "internalType": "uint256",
          "name": "subtractedValue",
          "type": "uint256"
        }
      ],
      "name": "decreaseAllowance",
      "outputs": [
        {
          "internalType": "bool",
          "name": "",
          "type": "bool"
        }
      ],
      "stateMutability": "nonpayable",
      "type": "function"
    },
    {
      "inputs": [
        {
          "internalType": "uint256",
          "name": "amountInEth",
          "type": "uint256"
        }
      ],
      "name": "ethToWei",
      "outputs": [
        {
          "internalType": "uint256",
          "name": "",
          "type": "uint256"
        }
      ],
      "stateMutability": "pure",
      "type": "function"
    },
    {
      "inputs": [
        {
          "internalType": "address",
          "name": "spender",
          "type": "address"
        },
        {
          "internalType": "uint256",
          "name": "addedValue",
          "type": "uint256"
        }
      ],
      "name": "increaseAllowance",
      "outputs": [
        {
          "internalType": "bool",
          "name": "",
          "type": "bool"
        }
      ],
      "stateMutability": "nonpayable",
      "type": "function"
    },
    {
      "inputs": [
        {
          "internalType": "address",
          "name": "to",
          "type": "address"
        },
        {
          "internalType": "uint256",
          "name": "amount",
          "type": "uint256"
        }
      ],
      "name": "mint",
      "outputs": [],
      "stateMutability": "nonpayable",
      "type": "function"
    },
    {
      "inputs": [
        {
          "internalType": "address",
          "name": "to",
          "type": "address"
        },
        {
          "internalType": "uint256",
          "name": "amountInEth",
          "type": "uint256"
        }
      ],
      "name": "mintEth",
      "outputs": [],
      "stateMutability": "nonpayable",
      "type": "function"
    },
    {
      "inputs": [],
      "name": "name",
      "outputs": [
        {
          "internalType": "string",
          "name": "",
          "type": "string"
        }
      ],
      "stateMutability": "view",
      "type": "function"
    },
    {
      "inputs": [],
      "name": "owner",
      "outputs": [
        {
          "internalType": "address",
          "name": "",
          "type": "address"
        }
      ],
      "stateMutability": "view",
      "type": "function"
    },
    {
      "inputs": [],
      "name": "propVera",
      "outputs": [
        {
          "internalType": "address",
          "name": "",
          "type": "address"
        }
      ],
      "stateMutability": "view",
      "type": "function"
    },
    {
      "inputs": [],
      "name": "renounceOwnership",
      "outputs": [],
      "stateMutability": "nonpayable",
      "type": "function"
    },
    {
      "inputs": [
        {
          "internalType": "address",
          "name": "_propVera",
          "type": "address"
        }
      ],
      "name": "setPropVera",
      "outputs": [],
      "stateMutability": "nonpayable",
      "type": "function"
    },
    {
      "inputs": [],
      "name": "symbol",
      "outputs": [
        {
          "internalType": "string",
          "name": "",
          "type": "string"
        }
      ],
      "stateMutability": "view",
      "type": "function"
    },
    {
      "inputs": [],
      "name": "totalSupply",
      "outputs": [
        {
          "internalType": "uint256",
          "name": "",
          "type": "uint256"
        }
      ],
      "stateMutability": "view",
      "type": "function"
    },
    {
      "inputs": [
        {
          "internalType": "address",
          "name": "to",
          "type": "address"
        },
        {
          "internalType": "uint256",
          "name": "amount",
          "type": "uint256"
        }
      ],
      "name": "transfer",
      "outputs": [
        {
          "internalType": "bool",
          "name": "",
          "type": "bool"
        }
      ],
      "stateMutability": "nonpayable",
      "type": "function"
    },
    {
      "inputs": [
        {
          "internalType": "address",
          "name": "from",
          "type": "address"
        },
        {
          "internalType": "address",
          "name": "to",
          "type": "address"
        },
        {
          "internalType": "uint256",
          "name": "amount",
          "type": "uint256"
        }
      ],
      "name": "transferFrom",
      "outputs": [
        {
          "internalType": "bool",
          "name": "",
          "type": "bool"
        }
      ],
      "stateMutability": "nonpayable",
      "type": "function"
    },
    {
      "inputs": [
        {
          "internalType": "address",
          "name": "newOwner",
          "type": "address"
        }
      ],
      "name": "transferOwnership",
      "outputs": [],
      "stateMutability": "nonpayable",
      "type": "function"
    },
    {
      "inputs": [
        {
          "internalType": "uint256",
          "name": "amountInWei",
          "type": "uint256"
        }
      ],
      "name": "weiToEth",
      "outputs": [
        {
          "internalType": "uint256",
          "name": "",
          "type": "uint256"
        }
      ],
      "stateMutability": "pure",
      "type": "function"
    }
  ],
  "bytecode": "0x60806040523461037f57604080519081016001600160401b0381118282101761028a576040908152601782527f50726f70566572614672616374696f6e616c546f6b656e000000000000000000602083015280519081016001600160401b0381118282101761028a576040526003815262282b2360e91b602082015281516001600160401b03811161028a57600354600181811c91168015610375575b602082101461026a57601f8111610310575b50602092601f82116001146102ab57928192936000926102a0575b50508160011b916000199060031b1c1916176003555b80516001600160401b03811161028a57600454600181811c91168015610280575b602082101461026a57601f8111610205575b50602091601f82116001146101a157918192600092610196575b50508160011b916000199060031b1c1916176004555b60058054336001600160a01b03198216811790925560405191906001600160a01b03167f8be0079c531659141344cd1fd0a4f28419497f9722a3daafe3b4186f6b6457e0600080a3610d1290816103858239f35b01519050388061012c565b601f198216926004600052806000209160005b8581106101ed575083600195106101d4575b505050811b01600455610142565b015160001960f88460031b161c191690553880806101c6565b919260206001819286850151815501940192016101b4565b60046000527f8a35acfbc15ff81a39ae7d344fd709f28e8600b4aa8c65c6b64bfe7fe36bd19b601f830160051c81019160208410610260575b601f0160051c01905b8181106102545750610112565b60008155600101610247565b909150819061023e565b634e487b7160e01b600052602260045260246000fd5b90607f1690610100565b634e487b7160e01b600052604160045260246000fd5b0151905038806100c9565b601f198216936003600052806000209160005b8681106102f857508360019596106102df575b505050811b016003556100df565b015160001960f88460031b161c191690553880806102d1565b919260206001819286850151815501940192016102be565b60036000527fc2575a0e9e593c00f959f8c92f12db2869c3395a3b0502d05e2516446f71f85b601f830160051c8101916020841061036b575b601f0160051c01905b81811061035f57506100ae565b60008155600101610352565b9091508190610349565b90607f169061009c565b600080fdfe608080604052600436101561001357600080fd5b60003560e01c90816306fdde031461080557508063095ea7b3146107df57806318160ddd146107c157806323b872dd1461070357806326b489e7146106da578063313ce567146106be578063395093511461066c57806340c10f191461061857806370a08231146105de578063715018a614610581578063882dd3d2146104fb57806388439bbc146104a55780638da5cb5b1461047c57806395d89b411461035b578063a457c2d7146102b4578063a9059cbb14610283578063b708865714610240578063dd62ed3e146101ef578063f2fde38b146101275763f99a910c146100fb57600080fd5b34610122576020366003190112610122576020604051670de0b6b3a7640000600435048152f35b600080fd5b3461012257602036600319011261012257610140610921565b610148610c84565b6001600160a01b0316801561019b57600580546001600160a01b0319811683179091556001600160a01b03167f8be0079c531659141344cd1fd0a4f28419497f9722a3daafe3b4186f6b6457e0600080a3005b60405162461bcd60e51b815260206004820152602660248201527f4f776e61626c653a206e6577206f776e657220697320746865207a65726f206160448201526564647265737360d01b6064820152608490fd5b3461012257604036600319011261012257610208610921565b610210610937565b6001600160a01b039182166000908152600160209081526040808320949093168252928352819020549051908152f35b3461012257602036600319011261012257610259610921565b610261610c84565b600680546001600160a01b0319166001600160a01b0392909216919091179055005b34610122576040366003190112610122576102a961029f610921565b6024359033610a62565b602060405160018152f35b34610122576040366003190112610122576102cd610921565b60243590336000526001602052604060002060018060a01b03821660005260205260406000205491808310610308576102a99203903361095a565b60405162461bcd60e51b815260206004820152602560248201527f45524332303a2064656372656173656420616c6c6f77616e63652062656c6f77604482015264207a65726f60d81b6064820152608490fd5b346101225760003660031901126101225760405160006004548060011c90600181168015610472575b60208310811461045e5782855290811561044257506001146103eb575b50819003601f01601f191681019067ffffffffffffffff8211818310176103d5576103d1829182604052826108d8565b0390f35b634e487b7160e01b600052604160045260246000fd5b905060046000527f8a35acfbc15ff81a39ae7d344fd709f28e8600b4aa8c65c6b64bfe7fe36bd19b6000905b82821061042c575060209150820101826103a1565b6001816020925483858801015201910190610417565b90506020925060ff191682840152151560051b820101826103a1565b634e487b7160e01b84526022600452602484fd5b91607f1691610384565b34610122576000366003190112610122576005546040516001600160a01b039091168152602090f35b3461012257602036600319011261012257600435670de0b6b3a7640000810290808204670de0b6b3a764000014901517156104e557602090604051908152f35b634e487b7160e01b600052601160045260246000fd5b3461012257604036600319011261012257610514610921565b60243560018060a01b03600554163314158061056c575b61055b57670de0b6b3a7640000810290808204670de0b6b3a764000014901517156104e55761055991610be1565b005b63ea8e4eb560e01b60005260046000fd5b506006546001600160a01b031633141561052b565b346101225760003660031901126101225761059a610c84565b600580546001600160a01b031981169091556000906001600160a01b03167f8be0079c531659141344cd1fd0a4f28419497f9722a3daafe3b4186f6b6457e08280a3005b34610122576020366003190112610122576001600160a01b036105ff610921565b1660005260006020526020604060002054604051908152f35b3461012257604036600319011261012257610631610921565b6005546001600160a01b031633141580610657575b61055b576105599060243590610be1565b506006546001600160a01b0316331415610646565b34610122576040366003190112610122576102a9610688610921565b336000526001602052604060002060018060a01b0382166000526020526106b76040600020602435905461094d565b903361095a565b3461012257600036600319011261012257602060405160128152f35b34610122576000366003190112610122576006546040516001600160a01b039091168152602090f35b346101225760603660031901126101225761071c610921565b610724610937565b6001600160a01b0382166000908152600160208181526040808420338552909152909120549260443592918401610760575b6102a99350610a62565b82841061077c57610777836102a99503338361095a565b610756565b60405162461bcd60e51b815260206004820152601d60248201527f45524332303a20696e73756666696369656e7420616c6c6f77616e63650000006044820152606490fd5b34610122576000366003190112610122576020600254604051908152f35b34610122576040366003190112610122576102a96107fb610921565b602435903361095a565b346101225760003660031901126101225760006003548060011c906001811680156108ce575b60208310811461045e5782855290811561044257506001146108775750819003601f01601f191681019067ffffffffffffffff8211818310176103d5576103d1829182604052826108d8565b905060036000527fc2575a0e9e593c00f959f8c92f12db2869c3395a3b0502d05e2516446f71f85b6000905b8282106108b8575060209150820101826103a1565b60018160209254838588010152019101906108a3565b91607f169161082b565b91909160208152825180602083015260005b81811061090b575060409293506000838284010152601f8019910116010190565b80602080928701015160408286010152016108ea565b600435906001600160a01b038216820361012257565b602435906001600160a01b038216820361012257565b919082018092116104e557565b6001600160a01b0316908115610a11576001600160a01b03169182156109c15760207f8c5be1e5ebec7d5bd14f71427d1e84f3dd0314c0f7b2291e5b200ac8c7c3b925918360005260018252604060002085600052825280604060002055604051908152a3565b60405162461bcd60e51b815260206004820152602260248201527f45524332303a20617070726f766520746f20746865207a65726f206164647265604482015261737360f01b6064820152608490fd5b60405162461bcd60e51b8152602060048201526024808201527f45524332303a20617070726f76652066726f6d20746865207a65726f206164646044820152637265737360e01b6064820152608490fd5b6001600160a01b0316908115610b8e576001600160a01b0316918215610b3d57816000526000602052604060002054818110610ae957817fddf252ad1be2c89b69c2b068fc378daa952ba7f163c4a11628f55a4df523b3ef9260209285600052600084520360406000205584600052600082526040600020818154019055604051908152a3565b60405162461bcd60e51b815260206004820152602660248201527f45524332303a207472616e7366657220616d6f756e7420657863656564732062604482015265616c616e636560d01b6064820152608490fd5b60405162461bcd60e51b815260206004820152602360248201527f45524332303a207472616e7366657220746f20746865207a65726f206164647260448201526265737360e81b6064820152608490fd5b60405162461bcd60e51b815260206004820152602560248201527f45524332303a207472616e736665722066726f6d20746865207a65726f206164604482015264647265737360d81b6064820152608490fd5b6001600160a01b0316908115610c3f577fddf252ad1be2c89b69c2b068fc378daa952ba7f163c4a11628f55a4df523b3ef602082610c2360009460025461094d565b60025584845283825260408420818154019055604051908152a3565b60405162461bcd60e51b815260206004820152601f60248201527f45524332303a206d696e7420746f20746865207a65726f2061646472657373006044820152606490fd5b6005546001600160a01b03163303610c9857565b606460405162461bcd60e51b815260206004820152602060248201527f4f776e61626c653a2063616c6c6572206973206e6f7420746865206f776e65726044820152fdfea264697066735822122073ba863f12c66deb4196bb3223a9a0f503ddbf6ebb19567062c447162c627aac64736f6c634300081c0033",
  "linkReferences": {},
  "deployedLinkReferences": {}
}