{
  "_format": "hh-sol-artifact-1",
  "contractName": "USDCFaucet",
  "sourceName": "contracts/mocks/USDCFaucet.sol",
  "abi": [
    {
      "inputs": [
        {
          "internalType": "address",
          "name": "_usdc",
          "type": "address"
        }
      ],
      "stateMutability": "nonpayable",
      "type": "constructor"
    },
    {
      "inputs": [
        {
          "internalType": "uint256",
          "name": "secondsRemaining",
          "type": "uint256"
        }
      ],
      "name": "CooldownNotElapsed",
      "type": "error"
    },
    {
      "inputs": [
        {
          "internalType": "address",
          "name": "owner",
          "type": "address"
        }
      ],
      "name": "OwnableInvalidOwner",
      "type": "error"
    },
    {
      "inputs": [
        {
          "internalType": "address",
          "name": "account",
          "type": "address"
        }
      ],
      "name": "OwnableUnauthorizedAccount",
      "type": "error"
    },
    {
      "inputs": [],
      "name": "ZeroAddress",
      "type": "error"
    },
    {
      "anonymous": false,
      "inputs": [
        {
          "indexed": false,
          "internalType": "uint256",
          "name": "newCooldown",
          "type": "uint256"
        }
      ],
      "name": "CooldownUpdated",
      "type": "event"
    },
    {
      "anonymous": false,
      "inputs": [
        {
          "indexed": false,
          "internalType": "uint256",
          "name": "newAmount",
          "type": "uint256"
        }
      ],
      "name": "DripAmountUpdated",
      "type": "event"
    },
    {
      "anonymous": false,
      "inputs": [
        {
          "indexed": true,
          "internalType": "address",
          "name": "recipient",
          "type": "address"
        },
        {
          "indexed": false,
          "internalType": "uint256",
          "name": "amountInEth",
          "type": "uint256"
        }
      ],
      "name": "Dripped",
      "type": "event"
    },
    {
      "anonymous": false,
      "inputs": [
        {
          "indexed": true,
          "internalType": "address",
          "name": "previousOwner",
          "type": "address"
        },
        {
          "indexed": true,
          "internalType": "address",
          "name": "newOwner",
          "type": "address"
        }
      ],
      "name": "OwnershipTransferred",
      "type": "event"
    },
    {
      "inputs": [
        {
          "internalType": "address",
          "name": "user",
          "type": "address"
        }
      ],
      "name": "canDrip",
      "outputs": [
        {
          "internalType": "bool",
          "name": "",
          "type": "bool"
        }
      ],
      "stateMutability": "view",
      "type": "function"
    },
    {
      "inputs": [],
      "name": "cooldown",
      "outputs": [
        {
          "internalType": "uint256",
          "name": "",
          "type": "uint256"
        }
      ],
      "stateMutability": "view",
      "type": "function"
    },
    {
      "inputs": [
        {
          "internalType": "address",
          "name": "user",
          "type": "address"
        }
      ],
      "name": "cooldownRemaining",
      "outputs": [
        {
          "internalType": "uint256",
          "name": "",
          "type": "uint256"
        }
      ],
      "stateMutability": "view",
      "type": "function"
    },
    {
      "inputs": [],
      "name": "drip",
      "outputs": [],
      "stateMutability": "nonpayable",
      "type": "function"
    },
    {
      "inputs": [],
      "name": "dripAmount",
      "outputs": [
        {
          "internalType": "uint256",
          "name": "",
          "type": "uint256"
        }
      ],
      "stateMutability": "view",
      "type": "function"
    },
    {
      "inputs": [
        {
          "internalType": "address",
          "name": "recipient",
          "type": "address"
        }
      ],
      "name": "dripTo",
      "outputs": [],
      "stateMutability": "nonpayable",
      "type": "function"
    },
    {
      "inputs": [
        {
          "internalType": "address",
          "name": "",
          "type": "address"
        }
      ],
      "name": "lastDrip",
      "outputs": [
        {
          "internalType": "uint256",
          "name": "",
          "type": "uint256"
        }
      ],
      "stateMutability": "view",
      "type": "function"
    },
    {
      "inputs": [],
      "name": "owner",
      "outputs": [
        {
          "internalType": "address",
          "name": "",
          "type": "address"
        }
      ],
      "stateMutability": "view",
      "type": "function"
    },
    {
      "inputs": [
        {
          "internalType": "address",
          "name": "recipient",
          "type": "address"
        },
        {
          "internalType": "uint256",
          "name": "amount",
          "type": "uint256"
        }
      ],
      "name": "ownerDrip",
      "outputs": [],
      "stateMutability": "nonpayable",
      "type": "function"
    },
    {
      "inputs": [],
      "name": "renounceOwnership",
      "outputs": [],
      "stateMutability": "nonpayable",
      "type": "function"
    },
    {
      "inputs": [
        {
          "internalType": "uint256",
          "name": "newCooldown",
          "type": "uint256"
        }
      ],
      "name": "setCooldown",
      "outputs": [],
      "stateMutability": "nonpayable",
      "type": "function"
    },
    {
      "inputs": [
        {
          "internalType": "uint256",
          "name": "newAmount",
          "type": "uint256"
        }
      ],
      "name": "setDripAmount",
      "outputs": [],
      "stateMutability": "nonpayable",
      "type": "function"
    },
    {
      "inputs": [
        {
          "internalType": "address",
          "name": "newOwner",
          "type": "address"
        }
      ],
      "name": "transferOwnership",
      "outputs": [],
      "stateMutability": "nonpayable",
      "type": "function"
    },
    {
      "inputs": [],
      "name": "usdc",
      "outputs": [
        {
          "internalType": "contract IMockUSDC",
          "name": "",
          "type": "address"
        }
      ],
      "stateMutability": "view",
      "type": "function"
    }
  ],
  "bytecode": "0x60a06040526127106001556201518060025534801561001c575f5ffd5b5060405161094e38038061094e83398101604081905261003b916100f1565b338061006057604051631e4fbdf760e01b81525f600482015260240160405180910390fd5b610069816100a2565b506001600160a01b0381166100915760405163d92e233d60e01b815260040160405180910390fd5b6001600160a01b031660805261011e565b5f80546001600160a01b038381166001600160a01b0319831681178455604051919092169283917f8be0079c531659141344cd1fd0a4f28419497f9722a3daafe3b4186f6b6457e09190a35050565b5f60208284031215610101575f5ffd5b81516001600160a01b0381168114610117575f5ffd5b9392505050565b60805161080361014b5f395f81816101290152818161033c015281816104b701526105e701526108035ff3fe608060405234801561000f575f5ffd5b50600436106100e5575f3560e01c80637ed99b83116100885780639d82190f116100635780639d82190f146101e25780639f678cca146101f5578063cabee26e146101fd578063f2fde38b14610210575f5ffd5b80637ed99b831461019c57806386c09bf8146101bf5780638da5cb5b146101d2575f5ffd5b80634fc3f41a116100c35780634fc3f41a14610163578063543f8c5814610178578063715018a61461018b578063787a08a614610193575f5ffd5b80630935f004146100e957806335a1529b1461011b5780633e413bee14610124575b5f5ffd5b6101086100f7366004610750565b60036020525f908152604090205481565b6040519081526020015b60405180910390f35b61010860015481565b61014b7f000000000000000000000000000000000000000000000000000000000000000081565b6040516001600160a01b039091168152602001610112565b610176610171366004610769565b610223565b005b610176610186366004610769565b610267565b6101766102a4565b61010860025481565b6101af6101aa366004610750565b6102b7565b6040519015158152602001610112565b6101766101cd366004610780565b6102e7565b5f546001600160a01b031661014b565b6101086101f0366004610750565b6103da565b610176610426565b61017661020b366004610750565b610549565b61017661021e366004610750565b61067d565b61022b6106ba565b60028190556040518181527f583d8b24c5439ab7d810e51e37e8db41ba66f1168fd7b752ceae0c7681c5272c906020015b60405180910390a150565b61026f6106ba565b60018190556040518181527f33f3faee0788ab897d8f674abe1dde6d93ba901e4a1502161294734ba178e3c79060200161025c565b6102ac6106ba565b6102b55f6106e6565b565b6002546001600160a01b0382165f908152600360205260408120549091906102df90426107a8565b101592915050565b6102ef6106ba565b6001600160a01b0382166103165760405163d92e233d60e01b815260040160405180910390fd5b6040516340c10f1960e01b81526001600160a01b038381166004830152602482018390527f000000000000000000000000000000000000000000000000000000000000000016906340c10f19906044015f604051808303815f87803b15801561037d575f5ffd5b505af115801561038f573d5f5f3e3d5ffd5b50505050816001600160a01b03167f0daf449977d5acafa35195e10b3eb92f97839892a6653afaba222379b58d8a9b826040516103ce91815260200190565b60405180910390a25050565b6001600160a01b0381165f9081526003602052604081205481906103fe90426107a8565b9050600254811061041157505f92915050565b8060025461041f91906107a8565b9392505050565b335f9081526003602052604081205461043f90426107a8565b905060025481101561047e578060025461045991906107a8565b60405163e3c9f05560e01b815260040161047591815260200190565b60405180910390fd5b335f818152600360205260409081902042905560015490516340c10f1960e01b8152600481019290925260248201526001600160a01b037f000000000000000000000000000000000000000000000000000000000000000016906340c10f19906044015f604051808303815f87803b1580156104f8575f5ffd5b505af115801561050a573d5f5f3e3d5ffd5b50506001546040519081523392507f0daf449977d5acafa35195e10b3eb92f97839892a6653afaba222379b58d8a9b915060200160405180910390a250565b6001600160a01b0381166105705760405163d92e233d60e01b815260040160405180910390fd5b6001600160a01b0381165f9081526003602052604081205461059290426107a8565b90506002548110156105ac578060025461045991906107a8565b6001600160a01b038281165f818152600360205260409081902042905560015490516340c10f1960e01b8152600481019290925260248201527f0000000000000000000000000000000000000000000000000000000000000000909116906340c10f19906044015f604051808303815f87803b15801561062a575f5ffd5b505af115801561063c573d5f5f3e3d5ffd5b50505050816001600160a01b03167f0daf449977d5acafa35195e10b3eb92f97839892a6653afaba222379b58d8a9b6001546040516103ce91815260200190565b6106856106ba565b6001600160a01b0381166106ae57604051631e4fbdf760e01b81525f6004820152602401610475565b6106b7816106e6565b50565b5f546001600160a01b031633146102b55760405163118cdaa760e01b8152336004820152602401610475565b5f80546001600160a01b038381166001600160a01b0319831681178455604051919092169283917f8be0079c531659141344cd1fd0a4f28419497f9722a3daafe3b4186f6b6457e09190a35050565b80356001600160a01b038116811461074b575f5ffd5b919050565b5f60208284031215610760575f5ffd5b61041f82610735565b5f60208284031215610779575f5ffd5b5035919050565b5f5f60408385031215610791575f5ffd5b61079a83610735565b946020939093013593505050565b818103818111156107c757634e487b7160e01b5f52601160045260245ffd5b9291505056fea2646970667358221220958536336ce07b51d5495f8b37bc090c322ac04edb48f0d96d688277fc76647964736f6c634300081c0033",
  "linkReferences": {},
  "deployedLinkReferences": {}
}