{
  "_format": "hh-sol-artifact-1",
  "contractName": "PropVeraFractionalToken",
  "sourceName": "contracts/tokens/PropVeraFractionalToken.sol",
  "abi": [
    {
      "inputs": [],
      "stateMutability": "nonpayable",
      "type": "constructor"
    },
    {
      "inputs": [
        {
          "internalType": "address",
          "name": "spender",
          "type": "address"
        },
        {
          "internalType": "uint256",
          "name": "allowance",
          "type": "uint256"
        },
        {
          "internalType": "uint256",
          "name": "needed",
          "type": "uint256"
        }
      ],
      "name": "ERC20InsufficientAllowance",
      "type": "error"
    },
    {
      "inputs": [
        {
          "internalType": "address",
          "name": "sender",
          "type": "address"
        },
        {
          "internalType": "uint256",
          "name": "balance",
          "type": "uint256"
        },
        {
          "internalType": "uint256",
          "name": "needed",
          "type": "uint256"
        }
      ],
      "name": "ERC20InsufficientBalance",
      "type": "error"
    },
    {
      "inputs": [
        {
          "internalType": "address",
          "name": "approver",
          "type": "address"
        }
      ],
      "name": "ERC20InvalidApprover",
      "type": "error"
    },
    {
      "inputs": [
        {
          "internalType": "address",
          "name": "receiver",
          "type": "address"
        }
      ],
      "name": "ERC20InvalidReceiver",
      "type": "error"
    },
    {
      "inputs": [
        {
          "internalType": "address",
          "name": "sender",
          "type": "address"
        }
      ],
      "name": "ERC20InvalidSender",
      "type": "error"
    },
    {
      "inputs": [
        {
          "internalType": "address",
          "name": "spender",
          "type": "address"
        }
      ],
      "name": "ERC20InvalidSpender",
      "type": "error"
    },
    {
      "inputs": [],
      "name": "NotAuthorized",
      "type": "error"
    },
    {
      "inputs": [
        {
          "internalType": "address",
          "name": "owner",
          "type": "address"
        }
      ],
      "name": "OwnableInvalidOwner",
      "type": "error"
    },
    {
      "inputs": [
        {
          "internalType": "address",
          "name": "account",
          "type": "address"
        }
      ],
      "name": "OwnableUnauthorizedAccount",
      "type": "error"
    },
    {
      "inputs": [],
      "name": "PropVeraAlreadyLocked",
      "type": "error"
    },
    {
      "inputs": [],
      "name": "ZeroAddress",
      "type": "error"
    },
    {
      "anonymous": false,
      "inputs": [
        {
          "indexed": true,
          "internalType": "address",
          "name": "owner",
          "type": "address"
        },
        {
          "indexed": true,
          "internalType": "address",
          "name": "spender",
          "type": "address"
        },
        {
          "indexed": false,
          "internalType": "uint256",
          "name": "value",
          "type": "uint256"
        }
      ],
      "name": "Approval",
      "type": "event"
    },
    {
      "anonymous": false,
      "inputs": [
        {
          "indexed": true,
          "internalType": "address",
          "name": "previousOwner",
          "type": "address"
        },
        {
          "indexed": true,
          "internalType": "address",
          "name": "newOwner",
          "type": "address"
        }
      ],
      "name": "OwnershipTransferred",
      "type": "event"
    },
    {
      "anonymous": false,
      "inputs": [
        {
          "indexed": true,
          "internalType": "address",
          "name": "from",
          "type": "address"
        },
        {
          "indexed": true,
          "internalType": "address",
          "name": "to",
          "type": "address"
        },
        {
          "indexed": false,
          "internalType": "uint256",
          "name": "value",
          "type": "uint256"
        }
      ],
      "name": "Transfer",
      "type": "event"
    },
    {
      "inputs": [
        {
          "internalType": "address",
          "name": "owner",
          "type": "address"
        },
        {
          "internalType": "address",
          "name": "spender",
          "type": "address"
        }
      ],
      "name": "allowance",
      "outputs": [
        {
          "internalType": "uint256",
          "name": "",
          "type": "uint256"
        }
      ],
      "stateMutability": "view",
      "type": "function"
    },
    {
      "inputs": [
        {
          "internalType": "address",
          "name": "spender",
          "type": "address"
        },
        {
          "internalType": "uint256",
          "name": "value",
          "type": "uint256"
        }
      ],
      "name": "approve",
      "outputs": [
        {
          "internalType": "bool",
          "name": "",
          "type": "bool"
        }
      ],
      "stateMutability": "nonpayable",
      "type": "function"
    },
    {
      "inputs": [
        {
          "internalType": "address",
          "name": "account",
          "type": "address"
        }
      ],
      "name": "balanceOf",
      "outputs": [
        {
          "internalType": "uint256",
          "name": "",
          "type": "uint256"
        }
      ],
      "stateMutability": "view",
      "type": "function"
    },
    {
      "inputs": [],
      "name": "decimals",
      "outputs": [
        {
          "internalType": "uint8",
          "name": "",
          "type": "uint8"
        }
      ],
      "stateMutability": "view",
      "type": "function"
    },
    {
      "inputs": [
        {
          "internalType": "uint256",
          "name": "amountInEth",
          "type": "uint256"
        }
      ],
      "name": "ethToWei",
      "outputs": [
        {
          "internalType": "uint256",
          "name": "",
          "type": "uint256"
        }
      ],
      "stateMutability": "pure",
      "type": "function"
    },
    {
      "inputs": [
        {
          "internalType": "address",
          "name": "to",
          "type": "address"
        },
        {
          "internalType": "uint256",
          "name": "amount",
          "type": "uint256"
        }
      ],
      "name": "mint",
      "outputs": [],
      "stateMutability": "nonpayable",
      "type": "function"
    },
    {
      "inputs": [
        {
          "internalType": "address",
          "name": "to",
          "type": "address"
        },
        {
          "internalType": "uint256",
          "name": "amountInEth",
          "type": "uint256"
        }
      ],
      "name": "mintEth",
      "outputs": [],
      "stateMutability": "nonpayable",
      "type": "function"
    },
    {
      "inputs": [],
      "name": "name",
      "outputs": [
        {
          "internalType": "string",
          "name": "",
          "type": "string"
        }
      ],
      "stateMutability": "view",
      "type": "function"
    },
    {
      "inputs": [],
      "name": "owner",
      "outputs": [
        {
          "internalType": "address",
          "name": "",
          "type": "address"
        }
      ],
      "stateMutability": "view",
      "type": "function"
    },
    {
      "inputs": [],
      "name": "propVera",
      "outputs": [
        {
          "internalType": "address",
          "name": "",
          "type": "address"
        }
      ],
      "stateMutability": "view",
      "type": "function"
    },
    {
      "inputs": [],
      "name": "propVeraLocked",
      "outputs": [
        {
          "internalType": "bool",
          "name": "",
          "type": "bool"
        }
      ],
      "stateMutability": "view",
      "type": "function"
    },
    {
      "inputs": [],
      "name": "renounceOwnership",
      "outputs": [],
      "stateMutability": "nonpayable",
      "type": "function"
    },
    {
      "inputs": [
        {
          "internalType": "address",
          "name": "_propVera",
          "type": "address"
        }
      ],
      "name": "setPropVera",
      "outputs": [],
      "stateMutability": "nonpayable",
      "type": "function"
    },
    {
      "inputs": [],
      "name": "symbol",
      "outputs": [
        {
          "internalType": "string",
          "name": "",
          "type": "string"
        }
      ],
      "stateMutability": "view",
      "type": "function"
    },
    {
      "inputs": [],
      "name": "totalSupply",
      "outputs": [
        {
          "internalType": "uint256",
          "name": "",
          "type": "uint256"
        }
      ],
      "stateMutability": "view",
      "type": "function"
    },
    {
      "inputs": [
        {
          "internalType": "address",
          "name": "to",
          "type": "address"
        },
        {
          "internalType": "uint256",
          "name": "value",
          "type": "uint256"
        }
      ],
      "name": "transfer",
      "outputs": [
        {
          "internalType": "bool",
          "name": "",
          "type": "bool"
        }
      ],
      "stateMutability": "nonpayable",
      "type": "function"
    },
    {
      "inputs": [
        {
          "internalType": "address",
          "name": "from",
          "type": "address"
        },
        {
          "internalType": "address",
          "name": "to",
          "type": "address"
        },
        {
          "internalType": "uint256",
          "name": "value",
          "type": "uint256"
        }
      ],
      "name": "transferFrom",
      "outputs": [
        {
          "internalType": "bool",
          "name": "",
          "type": "bool"
        }
      ],
      "stateMutability": "nonpayable",
      "type": "function"
    },
    {
      "inputs": [
        {
          "internalType": "address",
          "name": "newOwner",
          "type": "address"
        }
      ],
      "name": "transferOwnership",
      "outputs": [],
      "stateMutability": "nonpayable",
      "type": "function"
    },
    {
      "inputs": [
        {
          "internalType": "uint256",
          "name": "amountInWei",
          "type": "uint256"
        }
      ],
      "name": "weiToEth",
      "outputs": [
        {
          "internalType": "uint256",
          "name": "",
          "type": "uint256"
        }
      ],
      "stateMutability": "pure",
      "type": "function"
    }
  ],
  "bytecode": "0x608060405234801561000f575f5ffd5b50336040518060400160405280601781526020017f50726f70566572614672616374696f6e616c546f6b656e00000000000000000081525060405180604001604052806003815260200162282b2360e91b815250816003908161007291906101a7565b50600461007f82826101a7565b5050506001600160a01b0381166100af57604051631e4fbdf760e01b81525f600482015260240160405180910390fd5b6100b8816100be565b50610261565b600580546001600160a01b038381166001600160a01b0319831681179093556040519116919082907f8be0079c531659141344cd1fd0a4f28419497f9722a3daafe3b4186f6b6457e0905f90a35050565b634e487b7160e01b5f52604160045260245ffd5b600181811c9082168061013757607f821691505b60208210810361015557634e487b7160e01b5f52602260045260245ffd5b50919050565b601f8211156101a257805f5260205f20601f840160051c810160208510156101805750805b601f840160051c820191505b8181101561019f575f815560010161018c565b50505b505050565b81516001600160401b038111156101c0576101c061010f565b6101d4816101ce8454610123565b8461015b565b6020601f821160018114610206575f83156101ef5750848201515b5f19600385901b1c1916600184901b17845561019f565b5f84815260208120601f198516915b828110156102355787850151825560209485019460019092019101610215565b508482101561025257868401515f19600387901b60f8161c191681555b50505050600190811b01905550565b610b1d8061026e5f395ff3fe608060405234801561000f575f5ffd5b506004361061011c575f3560e01c8063882dd3d2116100a9578063a9059cbb1161006e578063a9059cbb14610258578063b70886571461026b578063dd62ed3e1461027e578063f2fde38b146102b6578063f99a910c146102c9575f5ffd5b8063882dd3d21461020557806388439bbc146102185780638da5cb5b1461022b57806395d89b411461023c578063a22f0fe314610244575f5ffd5b806326b489e7116100ef57806326b489e714610186578063313ce567146101b157806340c10f19146101c057806370a08231146101d5578063715018a6146101fd575f5ffd5b806306fdde0314610120578063095ea7b31461013e57806318160ddd1461016157806323b872dd14610173575b5f5ffd5b6101286102dc565b6040516101359190610938565b60405180910390f35b61015161014c366004610988565b61036c565b6040519015158152602001610135565b6002545b604051908152602001610135565b6101516101813660046109b0565b610385565b600654610199906001600160a01b031681565b6040516001600160a01b039091168152602001610135565b60405160128152602001610135565b6101d36101ce366004610988565b6103a8565b005b6101656101e33660046109ea565b6001600160a01b03165f9081526020819052604090205490565b6101d3610415565b6101d3610213366004610988565b610428565b610165610226366004610a0a565b6104a0565b6005546001600160a01b0316610199565b6101286104b3565b60065461015190600160a01b900460ff1681565b610151610266366004610988565b6104c2565b6101d36102793660046109ea565b6104cf565b61016561028c366004610a21565b6001600160a01b039182165f90815260016020908152604080832093909416825291909152205490565b6101d36102c43660046109ea565b610550565b6101656102d7366004610a0a565b610592565b6060600380546102eb90610a52565b80601f016020809104026020016040519081016040528092919081815260200182805461031790610a52565b80156103625780601f1061033957610100808354040283529160200191610362565b820191905f5260205f20905b81548152906001019060200180831161034557829003601f168201915b5050505050905090565b5f336103798185856105a5565b60019150505b92915050565b5f336103928582856105b7565b61039d85858561062d565b506001949350505050565b5f6103bb6005546001600160a01b031690565b6006549091506001600160a01b0390811690821633148015906103e75750336001600160a01b03821614155b156104055760405163ea8e4eb560e01b815260040160405180910390fd5b61040f848461068a565b50505050565b61041d6106c2565b6104265f6106ef565b565b5f61043b6005546001600160a01b031690565b6006549091506001600160a01b0390811690821633148015906104675750336001600160a01b03821614155b156104855760405163ea8e4eb560e01b815260040160405180910390fd5b61040f8461049b670de0b6b3a764000086610a9e565b61068a565b5f61037f670de0b6b3a764000083610a9e565b6060600480546102eb90610a52565b5f3361037981858561062d565b6104d76106c2565b600654600160a01b900460ff16156105025760405163a3efd61f60e01b815260040160405180910390fd5b6001600160a01b0381166105295760405163d92e233d60e01b815260040160405180910390fd5b600680546001600160a81b0319166001600160a01b0390921691909117600160a01b179055565b6105586106c2565b6001600160a01b03811661058657604051631e4fbdf760e01b81525f60048201526024015b60405180910390fd5b61058f816106ef565b50565b5f61037f670de0b6b3a764000083610ab5565b6105b28383836001610740565b505050565b6001600160a01b038381165f908152600160209081526040808320938616835292905220545f1981101561040f578181101561061f57604051637dc7a0d960e11b81526001600160a01b0384166004820152602481018290526044810183905260640161057d565b61040f84848484035f610740565b6001600160a01b03831661065657604051634b637e8f60e11b81525f600482015260240161057d565b6001600160a01b03821661067f5760405163ec442f0560e01b81525f600482015260240161057d565b6105b2838383610812565b6001600160a01b0382166106b35760405163ec442f0560e01b81525f600482015260240161057d565b6106be5f8383610812565b5050565b6005546001600160a01b031633146104265760405163118cdaa760e01b815233600482015260240161057d565b600580546001600160a01b038381166001600160a01b0319831681179093556040519116919082907f8be0079c531659141344cd1fd0a4f28419497f9722a3daafe3b4186f6b6457e0905f90a35050565b6001600160a01b0384166107695760405163e602df0560e01b81525f600482015260240161057d565b6001600160a01b03831661079257604051634a1406b160e11b81525f600482015260240161057d565b6001600160a01b038085165f908152600160209081526040808320938716835292905220829055801561040f57826001600160a01b0316846001600160a01b03167f8c5be1e5ebec7d5bd14f71427d1e84f3dd0314c0f7b2291e5b200ac8c7c3b9258460405161080491815260200190565b60405180910390a350505050565b6001600160a01b03831661083c578060025f8282546108319190610ad4565b909155506108ac9050565b6001600160a01b0383165f908152602081905260409020548181101561088e5760405163391434e360e21b81526001600160a01b0385166004820152602481018290526044810183905260640161057d565b6001600160a01b0384165f9081526020819052604090209082900390555b6001600160a01b0382166108c8576002805482900390556108e6565b6001600160a01b0382165f9081526020819052604090208054820190555b816001600160a01b0316836001600160a01b03167fddf252ad1be2c89b69c2b068fc378daa952ba7f163c4a11628f55a4df523b3ef8360405161092b91815260200190565b60405180910390a3505050565b602081525f82518060208401528060208501604085015e5f604082850101526040601f19601f83011684010191505092915050565b80356001600160a01b0381168114610983575f5ffd5b919050565b5f5f60408385031215610999575f5ffd5b6109a28361096d565b946020939093013593505050565b5f5f5f606084860312156109c2575f5ffd5b6109cb8461096d565b92506109d96020850161096d565b929592945050506040919091013590565b5f602082840312156109fa575f5ffd5b610a038261096d565b9392505050565b5f60208284031215610a1a575f5ffd5b5035919050565b5f5f60408385031215610a32575f5ffd5b610a3b8361096d565b9150610a496020840161096d565b90509250929050565b600181811c90821680610a6657607f821691505b602082108103610a8457634e487b7160e01b5f52602260045260245ffd5b50919050565b634e487b7160e01b5f52601160045260245ffd5b808202811582820484141761037f5761037f610a8a565b5f82610acf57634e487b7160e01b5f52601260045260245ffd5b500490565b8082018082111561037f5761037f610a8a56fea26469706673582212205109d78334beab0b480d125c24d823c71cadcbb9c7fa2a054393f3d3db76c21a64736f6c634300081c0033",
  "linkReferences": {},
  "deployedLinkReferences": {}
}