{
  "_format": "hh-sol-artifact-1",
  "contractName": "MockUSDC",
  "sourceName": "contracts/mock/MockUSDC.sol",
  "abi": [
    {
      "inputs": [],
      "stateMutability": "nonpayable",
      "type": "constructor"
    },
    {
      "anonymous": false,
      "inputs": [
        {
          "indexed": true,
          "internalType": "address",
          "name": "owner",
          "type": "address"
        },
        {
          "indexed": true,
          "internalType": "address",
          "name": "spender",
          "type": "address"
        },
        {
          "indexed": false,
          "internalType": "uint256",
          "name": "value",
          "type": "uint256"
        }
      ],
      "name": "Approval",
      "type": "event"
    },
    {
      "anonymous": false,
      "inputs": [
        {
          "indexed": true,
          "internalType": "address",
          "name": "from",
          "type": "address"
        },
        {
          "indexed": true,
          "internalType": "address",
          "name": "to",
          "type": "address"
        },
        {
          "indexed": false,
          "internalType": "uint256",
          "name": "value",
          "type": "uint256"
        }
      ],
      "name": "Transfer",
      "type": "event"
    },
    {
      "inputs": [
        {
          "internalType": "address",
          "name": "owner",
          "type": "address"
        },
        {
          "internalType": "address",
          "name": "spender",
          "type": "address"
        }
      ],
      "name": "allowance",
      "outputs": [
        {
          "internalType": "uint256",
          "name": "",
          "type": "uint256"
        }
      ],
      "stateMutability": "view",
      "type": "function"
    },
    {
      "inputs": [
        {
          "internalType": "address",
          "name": "spender",
          "type": "address"
        },
        {
          "internalType": "uint256",
          "name": "amount",
          "type": "uint256"
        }
      ],
      "name": "approve",
      "outputs": [
        {
          "internalType": "bool",
          "name": "",
          "type": "bool"
        }
      ],
      "stateMutability": "nonpayable",
      "type": "function"
    },
    {
      "inputs": [
        {
          "internalType": "address",
          "name": "account",
          "type": "address"
        }
      ],
      "name": "balanceOf",
      "outputs": [
        {
          "internalType": "uint256",
          "name": "",
          "type": "uint256"
        }
      ],
      "stateMutability": "view",
      "type": "function"
    },
    {
      "inputs": [],
      "name": "decimals",
      "outputs": [
        {
          "internalType": "uint8",
          "name": "",
          "type": "uint8"
        }
      ],
      "stateMutability": "pure",
      "type": "function"
    },
    {
      "inputs": [
        {
          "internalType": "address",
          "name": "spender",
          "type": "address"
        },
        {
          "internalType": "uint256",
          "name": "subtractedValue",
          "type": "uint256"
        }
      ],
      "name": "decreaseAllowance",
      "outputs": [
        {
          "internalType": "bool",
          "name": "",
          "type": "bool"
        }
      ],
      "stateMutability": "nonpayable",
      "type": "function"
    },
    {
      "inputs": [
        {
          "internalType": "uint256",
          "name": "amountInEth",
          "type": "uint256"
        }
      ],
      "name": "ethToWei",
      "outputs": [
        {
          "internalType": "uint256",
          "name": "",
          "type": "uint256"
        }
      ],
      "stateMutability": "pure",
      "type": "function"
    },
    {
      "inputs": [
        {
          "internalType": "address",
          "name": "spender",
          "type": "address"
        },
        {
          "internalType": "uint256",
          "name": "addedValue",
          "type": "uint256"
        }
      ],
      "name": "increaseAllowance",
      "outputs": [
        {
          "internalType": "bool",
          "name": "",
          "type": "bool"
        }
      ],
      "stateMutability": "nonpayable",
      "type": "function"
    },
    {
      "inputs": [
        {
          "internalType": "address",
          "name": "to",
          "type": "address"
        },
        {
          "internalType": "uint256",
          "name": "amountInEth",
          "type": "uint256"
        }
      ],
      "name": "mint",
      "outputs": [],
      "stateMutability": "nonpayable",
      "type": "function"
    },
    {
      "inputs": [
        {
          "internalType": "address",
          "name": "to",
          "type": "address"
        },
        {
          "internalType": "uint256",
          "name": "amountInWei",
          "type": "uint256"
        }
      ],
      "name": "mintWei",
      "outputs": [],
      "stateMutability": "nonpayable",
      "type": "function"
    },
    {
      "inputs": [],
      "name": "name",
      "outputs": [
        {
          "internalType": "string",
          "name": "",
          "type": "string"
        }
      ],
      "stateMutability": "view",
      "type": "function"
    },
    {
      "inputs": [],
      "name": "symbol",
      "outputs": [
        {
          "internalType": "string",
          "name": "",
          "type": "string"
        }
      ],
      "stateMutability": "view",
      "type": "function"
    },
    {
      "inputs": [],
      "name": "totalSupply",
      "outputs": [
        {
          "internalType": "uint256",
          "name": "",
          "type": "uint256"
        }
      ],
      "stateMutability": "view",
      "type": "function"
    },
    {
      "inputs": [
        {
          "internalType": "address",
          "name": "to",
          "type": "address"
        },
        {
          "internalType": "uint256",
          "name": "amount",
          "type": "uint256"
        }
      ],
      "name": "transfer",
      "outputs": [
        {
          "internalType": "bool",
          "name": "",
          "type": "bool"
        }
      ],
      "stateMutability": "nonpayable",
      "type": "function"
    },
    {
      "inputs": [
        {
          "internalType": "address",
          "name": "from",
          "type": "address"
        },
        {
          "internalType": "address",
          "name": "to",
          "type": "address"
        },
        {
          "internalType": "uint256",
          "name": "amount",
          "type": "uint256"
        }
      ],
      "name": "transferFrom",
      "outputs": [
        {
          "internalType": "bool",
          "name": "",
          "type": "bool"
        }
      ],
      "stateMutability": "nonpayable",
      "type": "function"
    },
    {
      "inputs": [
        {
          "internalType": "uint256",
          "name": "amountInWei",
          "type": "uint256"
        }
      ],
      "name": "weiToEth",
      "outputs": [
        {
          "internalType": "uint256",
          "name": "",
          "type": "uint256"
        }
      ],
      "stateMutability": "pure",
      "type": "function"
    }
  ],
  "bytecode": "0x60806040523461032757604080519081016001600160401b0381118282101761023257604090815260098252684d6f636b205553444360b81b602083015280519081016001600160401b038111828210176102325760405260048152635553444360e01b602082015281516001600160401b03811161023257600354600181811c9116801561031d575b602082101461021257601f81116102b8575b50602092601f82116001146102535792819293600092610248575b50508160011b916000199060031b1c1916176003555b80516001600160401b03811161023257600454600181811c91168015610228575b602082101461021257601f81116101ad575b50602091601f82116001146101495791819260009261013e575b50508160011b916000199060031b1c1916176004555b604051610a43908161032d8239f35b015190503880610119565b601f198216926004600052806000209160005b8581106101955750836001951061017c575b505050811b0160045561012f565b015160001960f88460031b161c1916905538808061016e565b9192602060018192868501518155019401920161015c565b60046000527f8a35acfbc15ff81a39ae7d344fd709f28e8600b4aa8c65c6b64bfe7fe36bd19b601f830160051c81019160208410610208575b601f0160051c01905b8181106101fc57506100ff565b600081556001016101ef565b90915081906101e6565b634e487b7160e01b600052602260045260246000fd5b90607f16906100ed565b634e487b7160e01b600052604160045260246000fd5b0151905038806100b6565b601f198216936003600052806000209160005b8681106102a05750836001959610610287575b505050811b016003556100cc565b015160001960f88460031b161c19169055388080610279565b91926020600181928685015181550194019201610266565b60036000527fc2575a0e9e593c00f959f8c92f12db2869c3395a3b0502d05e2516446f71f85b601f830160051c81019160208410610313575b601f0160051c01905b818110610307575061009b565b600081556001016102fa565b90915081906102f1565b90607f1690610089565b600080fdfe608080604052600436101561001357600080fd5b60003560e01c90816306fdde031461058e57508063095ea7b31461056857806318160ddd1461054a57806323b872dd1461048c578063313ce56714610470578063395093511461041e57806340c10f19146103e25780635048ec0c146103bb57806370a082311461038157806388439bbc1461033557806395d89b4114610214578063a457c2d71461016d578063a9059cbb1461013c578063dd62ed3e146100eb5763f99a910c146100c457600080fd5b346100e65760203660031901126100e6576020604051620f4240600435048152f35b600080fd5b346100e65760403660031901126100e6576101046106aa565b61010c6106c0565b6001600160a01b039182166000908152600160209081526040808320949093168252928352819020549051908152f35b346100e65760403660031901126100e6576101626101586106aa565b60243590336107eb565b602060405160018152f35b346100e65760403660031901126100e6576101866106aa565b60243590336000526001602052604060002060018060a01b038216600052602052604060002054918083106101c157610162920390336106e3565b60405162461bcd60e51b815260206004820152602560248201527f45524332303a2064656372656173656420616c6c6f77616e63652062656c6f77604482015264207a65726f60d81b6064820152608490fd5b346100e65760003660031901126100e65760405160006004548060011c9060018116801561032b575b602083108114610317578285529081156102fb57506001146102a4575b50819003601f01601f191681019067ffffffffffffffff82118183101761028e5761028a82918260405282610661565b0390f35b634e487b7160e01b600052604160045260246000fd5b905060046000527f8a35acfbc15ff81a39ae7d344fd709f28e8600b4aa8c65c6b64bfe7fe36bd19b6000905b8282106102e55750602091508201018261025a565b60018160209254838588010152019101906102d0565b90506020925060ff191682840152151560051b8201018261025a565b634e487b7160e01b84526022600452602484fd5b91607f169161023d565b346100e65760203660031901126100e657600435620f4240810290808204620f4240149015171561036b57602090604051908152f35b634e487b7160e01b600052601160045260246000fd5b346100e65760203660031901126100e6576001600160a01b036103a26106aa565b1660005260006020526020604060002054604051908152f35b346100e65760403660031901126100e6576103e06103d76106aa565b6024359061096a565b005b346100e65760403660031901126100e6576103fb6106aa565b602435620f4240810290808204620f4240149015171561036b576103e09161096a565b346100e65760403660031901126100e65761016261043a6106aa565b336000526001602052604060002060018060a01b038216600052602052610469604060002060243590546106d6565b90336106e3565b346100e65760003660031901126100e657602060405160068152f35b346100e65760603660031901126100e6576104a56106aa565b6104ad6106c0565b6001600160a01b03821660009081526001602081815260408084203385529091529091205492604435929184016104e9575b61016293506107eb565b8284106105055761050083610162950333836106e3565b6104df565b60405162461bcd60e51b815260206004820152601d60248201527f45524332303a20696e73756666696369656e7420616c6c6f77616e63650000006044820152606490fd5b346100e65760003660031901126100e6576020600254604051908152f35b346100e65760403660031901126100e6576101626105846106aa565b60243590336106e3565b346100e65760003660031901126100e65760006003548060011c90600181168015610657575b602083108114610317578285529081156102fb57506001146106005750819003601f01601f191681019067ffffffffffffffff82118183101761028e5761028a82918260405282610661565b905060036000527fc2575a0e9e593c00f959f8c92f12db2869c3395a3b0502d05e2516446f71f85b6000905b8282106106415750602091508201018261025a565b600181602092548385880101520191019061062c565b91607f16916105b4565b91909160208152825180602083015260005b818110610694575060409293506000838284010152601f8019910116010190565b8060208092870101516040828601015201610673565b600435906001600160a01b03821682036100e657565b602435906001600160a01b03821682036100e657565b9190820180921161036b57565b6001600160a01b031690811561079a576001600160a01b031691821561074a5760207f8c5be1e5ebec7d5bd14f71427d1e84f3dd0314c0f7b2291e5b200ac8c7c3b925918360005260018252604060002085600052825280604060002055604051908152a3565b60405162461bcd60e51b815260206004820152602260248201527f45524332303a20617070726f766520746f20746865207a65726f206164647265604482015261737360f01b6064820152608490fd5b60405162461bcd60e51b8152602060048201526024808201527f45524332303a20617070726f76652066726f6d20746865207a65726f206164646044820152637265737360e01b6064820152608490fd5b6001600160a01b0316908115610917576001600160a01b03169182156108c65781600052600060205260406000205481811061087257817fddf252ad1be2c89b69c2b068fc378daa952ba7f163c4a11628f55a4df523b3ef9260209285600052600084520360406000205584600052600082526040600020818154019055604051908152a3565b60405162461bcd60e51b815260206004820152602660248201527f45524332303a207472616e7366657220616d6f756e7420657863656564732062604482015265616c616e636560d01b6064820152608490fd5b60405162461bcd60e51b815260206004820152602360248201527f45524332303a207472616e7366657220746f20746865207a65726f206164647260448201526265737360e81b6064820152608490fd5b60405162461bcd60e51b815260206004820152602560248201527f45524332303a207472616e736665722066726f6d20746865207a65726f206164604482015264647265737360d81b6064820152608490fd5b6001600160a01b03169081156109c8577fddf252ad1be2c89b69c2b068fc378daa952ba7f163c4a11628f55a4df523b3ef6020826109ac6000946002546106d6565b60025584845283825260408420818154019055604051908152a3565b60405162461bcd60e51b815260206004820152601f60248201527f45524332303a206d696e7420746f20746865207a65726f2061646472657373006044820152606490fdfea26469706673582212207da70f50d84ac1664eaa7a63b3f0d15d79bba96d0fdc2c201fb99a6b6deb406d64736f6c634300081c0033",
  "linkReferences": {},
  "deployedLinkReferences": {}
}