{
  "_format": "hh-sol-artifact-1",
  "contractName": "MockUSDC",
  "sourceName": "contracts/mocks/MockUSDC.sol",
  "abi": [
    {
      "inputs": [],
      "stateMutability": "nonpayable",
      "type": "constructor"
    },
    {
      "inputs": [
        {
          "internalType": "address",
          "name": "spender",
          "type": "address"
        },
        {
          "internalType": "uint256",
          "name": "allowance",
          "type": "uint256"
        },
        {
          "internalType": "uint256",
          "name": "needed",
          "type": "uint256"
        }
      ],
      "name": "ERC20InsufficientAllowance",
      "type": "error"
    },
    {
      "inputs": [
        {
          "internalType": "address",
          "name": "sender",
          "type": "address"
        },
        {
          "internalType": "uint256",
          "name": "balance",
          "type": "uint256"
        },
        {
          "internalType": "uint256",
          "name": "needed",
          "type": "uint256"
        }
      ],
      "name": "ERC20InsufficientBalance",
      "type": "error"
    },
    {
      "inputs": [
        {
          "internalType": "address",
          "name": "approver",
          "type": "address"
        }
      ],
      "name": "ERC20InvalidApprover",
      "type": "error"
    },
    {
      "inputs": [
        {
          "internalType": "address",
          "name": "receiver",
          "type": "address"
        }
      ],
      "name": "ERC20InvalidReceiver",
      "type": "error"
    },
    {
      "inputs": [
        {
          "internalType": "address",
          "name": "sender",
          "type": "address"
        }
      ],
      "name": "ERC20InvalidSender",
      "type": "error"
    },
    {
      "inputs": [
        {
          "internalType": "address",
          "name": "spender",
          "type": "address"
        }
      ],
      "name": "ERC20InvalidSpender",
      "type": "error"
    },
    {
      "inputs": [],
      "name": "NotMinter",
      "type": "error"
    },
    {
      "inputs": [
        {
          "internalType": "address",
          "name": "owner",
          "type": "address"
        }
      ],
      "name": "OwnableInvalidOwner",
      "type": "error"
    },
    {
      "inputs": [
        {
          "internalType": "address",
          "name": "account",
          "type": "address"
        }
      ],
      "name": "OwnableUnauthorizedAccount",
      "type": "error"
    },
    {
      "inputs": [],
      "name": "ZeroAddress",
      "type": "error"
    },
    {
      "anonymous": false,
      "inputs": [
        {
          "indexed": true,
          "internalType": "address",
          "name": "owner",
          "type": "address"
        },
        {
          "indexed": true,
          "internalType": "address",
          "name": "spender",
          "type": "address"
        },
        {
          "indexed": false,
          "internalType": "uint256",
          "name": "value",
          "type": "uint256"
        }
      ],
      "name": "Approval",
      "type": "event"
    },
    {
      "anonymous": false,
      "inputs": [
        {
          "indexed": true,
          "internalType": "address",
          "name": "account",
          "type": "address"
        },
        {
          "indexed": false,
          "internalType": "bool",
          "name": "enabled",
          "type": "bool"
        }
      ],
      "name": "MinterSet",
      "type": "event"
    },
    {
      "anonymous": false,
      "inputs": [
        {
          "indexed": true,
          "internalType": "address",
          "name": "previousOwner",
          "type": "address"
        },
        {
          "indexed": true,
          "internalType": "address",
          "name": "newOwner",
          "type": "address"
        }
      ],
      "name": "OwnershipTransferred",
      "type": "event"
    },
    {
      "anonymous": false,
      "inputs": [
        {
          "indexed": true,
          "internalType": "address",
          "name": "from",
          "type": "address"
        },
        {
          "indexed": true,
          "internalType": "address",
          "name": "to",
          "type": "address"
        },
        {
          "indexed": false,
          "internalType": "uint256",
          "name": "value",
          "type": "uint256"
        }
      ],
      "name": "Transfer",
      "type": "event"
    },
    {
      "inputs": [
        {
          "internalType": "address",
          "name": "owner",
          "type": "address"
        },
        {
          "internalType": "address",
          "name": "spender",
          "type": "address"
        }
      ],
      "name": "allowance",
      "outputs": [
        {
          "internalType": "uint256",
          "name": "",
          "type": "uint256"
        }
      ],
      "stateMutability": "view",
      "type": "function"
    },
    {
      "inputs": [
        {
          "internalType": "address",
          "name": "spender",
          "type": "address"
        },
        {
          "internalType": "uint256",
          "name": "value",
          "type": "uint256"
        }
      ],
      "name": "approve",
      "outputs": [
        {
          "internalType": "bool",
          "name": "",
          "type": "bool"
        }
      ],
      "stateMutability": "nonpayable",
      "type": "function"
    },
    {
      "inputs": [
        {
          "internalType": "address",
          "name": "account",
          "type": "address"
        }
      ],
      "name": "balanceOf",
      "outputs": [
        {
          "internalType": "uint256",
          "name": "",
          "type": "uint256"
        }
      ],
      "stateMutability": "view",
      "type": "function"
    },
    {
      "inputs": [],
      "name": "decimals",
      "outputs": [
        {
          "internalType": "uint8",
          "name": "",
          "type": "uint8"
        }
      ],
      "stateMutability": "pure",
      "type": "function"
    },
    {
      "inputs": [
        {
          "internalType": "uint256",
          "name": "amountInEth",
          "type": "uint256"
        }
      ],
      "name": "ethToWei",
      "outputs": [
        {
          "internalType": "uint256",
          "name": "",
          "type": "uint256"
        }
      ],
      "stateMutability": "pure",
      "type": "function"
    },
    {
      "inputs": [
        {
          "internalType": "address",
          "name": "",
          "type": "address"
        }
      ],
      "name": "isMinter",
      "outputs": [
        {
          "internalType": "bool",
          "name": "",
          "type": "bool"
        }
      ],
      "stateMutability": "view",
      "type": "function"
    },
    {
      "inputs": [
        {
          "internalType": "address",
          "name": "to",
          "type": "address"
        },
        {
          "internalType": "uint256",
          "name": "amountInEth",
          "type": "uint256"
        }
      ],
      "name": "mint",
      "outputs": [],
      "stateMutability": "nonpayable",
      "type": "function"
    },
    {
      "inputs": [
        {
          "internalType": "address",
          "name": "to",
          "type": "address"
        },
        {
          "internalType": "uint256",
          "name": "amountInWei",
          "type": "uint256"
        }
      ],
      "name": "mintWei",
      "outputs": [],
      "stateMutability": "nonpayable",
      "type": "function"
    },
    {
      "inputs": [],
      "name": "name",
      "outputs": [
        {
          "internalType": "string",
          "name": "",
          "type": "string"
        }
      ],
      "stateMutability": "view",
      "type": "function"
    },
    {
      "inputs": [],
      "name": "owner",
      "outputs": [
        {
          "internalType": "address",
          "name": "",
          "type": "address"
        }
      ],
      "stateMutability": "view",
      "type": "function"
    },
    {
      "inputs": [],
      "name": "renounceOwnership",
      "outputs": [],
      "stateMutability": "nonpayable",
      "type": "function"
    },
    {
      "inputs": [
        {
          "internalType": "address",
          "name": "account",
          "type": "address"
        },
        {
          "internalType": "bool",
          "name": "enabled",
          "type": "bool"
        }
      ],
      "name": "setMinter",
      "outputs": [],
      "stateMutability": "nonpayable",
      "type": "function"
    },
    {
      "inputs": [],
      "name": "symbol",
      "outputs": [
        {
          "internalType": "string",
          "name": "",
          "type": "string"
        }
      ],
      "stateMutability": "view",
      "type": "function"
    },
    {
      "inputs": [],
      "name": "totalSupply",
      "outputs": [
        {
          "internalType": "uint256",
          "name": "",
          "type": "uint256"
        }
      ],
      "stateMutability": "view",
      "type": "function"
    },
    {
      "inputs": [
        {
          "internalType": "address",
          "name": "to",
          "type": "address"
        },
        {
          "internalType": "uint256",
          "name": "value",
          "type": "uint256"
        }
      ],
      "name": "transfer",
      "outputs": [
        {
          "internalType": "bool",
          "name": "",
          "type": "bool"
        }
      ],
      "stateMutability": "nonpayable",
      "type": "function"
    },
    {
      "inputs": [
        {
          "internalType": "address",
          "name": "from",
          "type": "address"
        },
        {
          "internalType": "address",
          "name": "to",
          "type": "address"
        },
        {
          "internalType": "uint256",
          "name": "value",
          "type": "uint256"
        }
      ],
      "name": "transferFrom",
      "outputs": [
        {
          "internalType": "bool",
          "name": "",
          "type": "bool"
        }
      ],
      "stateMutability": "nonpayable",
      "type": "function"
    },
    {
      "inputs": [
        {
          "internalType": "address",
          "name": "newOwner",
          "type": "address"
        }
      ],
      "name": "transferOwnership",
      "outputs": [],
      "stateMutability": "nonpayable",
      "type": "function"
    },
    {
      "inputs": [
        {
          "internalType": "uint256",
          "name": "amountInWei",
          "type": "uint256"
        }
      ],
      "name": "weiToEth",
      "outputs": [
        {
          "internalType": "uint256",
          "name": "",
          "type": "uint256"
        }
      ],
      "stateMutability": "pure",
      "type": "function"
    }
  ],
  "bytecode": "0x608060405234801561000f575f5ffd5b5033604051806040016040528060098152602001684d6f636b205553444360b81b815250604051806040016040528060048152602001635553444360e01b815250816003908161005f91906101e4565b50600461006c82826101e4565b5050506001600160a01b03811661009c57604051631e4fbdf760e01b81525f600482015260240160405180910390fd5b6100a5816100fb565b50335f81815260066020908152604091829020805460ff1916600190811790915591519182527f583b0aa0e528532caf4b907c11d7a8158a122fe2a6fb80cd9b09776ebea8d92d910160405180910390a261029e565b600580546001600160a01b038381166001600160a01b0319831681179093556040519116919082907f8be0079c531659141344cd1fd0a4f28419497f9722a3daafe3b4186f6b6457e0905f90a35050565b634e487b7160e01b5f52604160045260245ffd5b600181811c9082168061017457607f821691505b60208210810361019257634e487b7160e01b5f52602260045260245ffd5b50919050565b601f8211156101df57805f5260205f20601f840160051c810160208510156101bd5750805b601f840160051c820191505b818110156101dc575f81556001016101c9565b50505b505050565b81516001600160401b038111156101fd576101fd61014c565b6102118161020b8454610160565b84610198565b6020601f821160018114610243575f831561022c5750848201515b5f19600385901b1c1916600184901b1784556101dc565b5f84815260208120601f198516915b828110156102725787850151825560209485019460019092019101610252565b508482101561028f57868401515f19600387901b60f8161c191681555b50505050600190811b01905550565b610b00806102ab5f395ff3fe608060405234801561000f575f5ffd5b5060043610610111575f3560e01c806388439bbc1161009e578063aa271e1a1161006e578063aa271e1a1461022b578063cf456ae71461024d578063dd62ed3e14610260578063f2fde38b14610298578063f99a910c146102ab575f5ffd5b806388439bbc146101e25780638da5cb5b146101f557806395d89b4114610210578063a9059cbb14610218575f5ffd5b8063313ce567116100e4578063313ce5671461017b57806340c10f191461018a5780635048ec0c1461019f57806370a08231146101b2578063715018a6146101da575f5ffd5b806306fdde0314610115578063095ea7b31461013357806318160ddd1461015657806323b872dd14610168575b5f5ffd5b61011d6102be565b60405161012a91906108e2565b60405180910390f35b610146610141366004610932565b61034e565b604051901515815260200161012a565b6002545b60405190815260200161012a565b61014661017636600461095a565b610367565b6040516006815260200161012a565b61019d610198366004610932565b61038a565b005b61019d6101ad366004610932565b6103fa565b61015a6101c0366004610994565b6001600160a01b03165f9081526020819052604090205490565b61019d61045a565b61015a6101f03660046109b4565b61046d565b6005546040516001600160a01b03909116815260200161012a565b61011d61047b565b610146610226366004610932565b61048a565b610146610239366004610994565b60066020525f908152604090205460ff1681565b61019d61025b3660046109cb565b610497565b61015a61026e366004610a04565b6001600160a01b039182165f90815260016020908152604080832093909416825291909152205490565b61019d6102a6366004610994565b6104fd565b61015a6102b93660046109b4565b61053f565b6060600380546102cd90610a35565b80601f01602080910402602001604051908101604052809291908181526020018280546102f990610a35565b80156103445780601f1061031b57610100808354040283529160200191610344565b820191905f5260205f20905b81548152906001019060200180831161032757829003601f168201915b5050505050905090565b5f3361035b81858561054d565b60019150505b92915050565b5f3361037485828561055f565b61037f8585856105db565b506001949350505050565b335f9081526006602052604090205460ff166103b957604051633e34a41b60e21b815260040160405180910390fd5b6001600160a01b0382166103e05760405163d92e233d60e01b815260040160405180910390fd5b6103f6826103f1620f424084610a81565b610638565b5050565b335f9081526006602052604090205460ff1661042957604051633e34a41b60e21b815260040160405180910390fd5b6001600160a01b0382166104505760405163d92e233d60e01b815260040160405180910390fd5b6103f68282610638565b61046261066c565b61046b5f610699565b565b5f610361620f424083610a81565b6060600480546102cd90610a35565b5f3361035b8185856105db565b61049f61066c565b6001600160a01b0382165f81815260066020908152604091829020805460ff191685151590811790915591519182527f583b0aa0e528532caf4b907c11d7a8158a122fe2a6fb80cd9b09776ebea8d92d910160405180910390a25050565b61050561066c565b6001600160a01b03811661053357604051631e4fbdf760e01b81525f60048201526024015b60405180910390fd5b61053c81610699565b50565b5f610361620f424083610a98565b61055a83838360016106ea565b505050565b6001600160a01b038381165f908152600160209081526040808320938616835292905220545f198110156105d557818110156105c757604051637dc7a0d960e11b81526001600160a01b0384166004820152602481018290526044810183905260640161052a565b6105d584848484035f6106ea565b50505050565b6001600160a01b03831661060457604051634b637e8f60e11b81525f600482015260240161052a565b6001600160a01b03821661062d5760405163ec442f0560e01b81525f600482015260240161052a565b61055a8383836107bc565b6001600160a01b0382166106615760405163ec442f0560e01b81525f600482015260240161052a565b6103f65f83836107bc565b6005546001600160a01b0316331461046b5760405163118cdaa760e01b815233600482015260240161052a565b600580546001600160a01b038381166001600160a01b0319831681179093556040519116919082907f8be0079c531659141344cd1fd0a4f28419497f9722a3daafe3b4186f6b6457e0905f90a35050565b6001600160a01b0384166107135760405163e602df0560e01b81525f600482015260240161052a565b6001600160a01b03831661073c57604051634a1406b160e11b81525f600482015260240161052a565b6001600160a01b038085165f90815260016020908152604080832093871683529290522082905580156105d557826001600160a01b0316846001600160a01b03167f8c5be1e5ebec7d5bd14f71427d1e84f3dd0314c0f7b2291e5b200ac8c7c3b925846040516107ae91815260200190565b60405180910390a350505050565b6001600160a01b0383166107e6578060025f8282546107db9190610ab7565b909155506108569050565b6001600160a01b0383165f90815260208190526040902054818110156108385760405163391434e360e21b81526001600160a01b0385166004820152602481018290526044810183905260640161052a565b6001600160a01b0384165f9081526020819052604090209082900390555b6001600160a01b03821661087257600280548290039055610890565b6001600160a01b0382165f9081526020819052604090208054820190555b816001600160a01b0316836001600160a01b03167fddf252ad1be2c89b69c2b068fc378daa952ba7f163c4a11628f55a4df523b3ef836040516108d591815260200190565b60405180910390a3505050565b602081525f82518060208401528060208501604085015e5f604082850101526040601f19601f83011684010191505092915050565b80356001600160a01b038116811461092d575f5ffd5b919050565b5f5f60408385031215610943575f5ffd5b61094c83610917565b946020939093013593505050565b5f5f5f6060848603121561096c575f5ffd5b61097584610917565b925061098360208501610917565b929592945050506040919091013590565b5f602082840312156109a4575f5ffd5b6109ad82610917565b9392505050565b5f602082840312156109c4575f5ffd5b5035919050565b5f5f604083850312156109dc575f5ffd5b6109e583610917565b9150602083013580151581146109f9575f5ffd5b809150509250929050565b5f5f60408385031215610a15575f5ffd5b610a1e83610917565b9150610a2c60208401610917565b90509250929050565b600181811c90821680610a4957607f821691505b602082108103610a6757634e487b7160e01b5f52602260045260245ffd5b50919050565b634e487b7160e01b5f52601160045260245ffd5b808202811582820484141761036157610361610a6d565b5f82610ab257634e487b7160e01b5f52601260045260245ffd5b500490565b8082018082111561036157610361610a6d56fea2646970667358221220fa110e0b98608f0c79f00f3796a8d2e065e11c9ba6a0d87a60e60961a97e88db64736f6c634300081c0033",
  "linkReferences": {},
  "deployedLinkReferences": {}
}