{
  "_format": "hh-sol-artifact-1",
  "contractName": "PropVera",
  "sourceName": "contracts/PropVera.sol",
  "abi": [
    {
      "inputs": [
        {
          "internalType": "address",
          "name": "realEstateTokenAddr",
          "type": "address"
        },
        {
          "internalType": "address",
          "name": "_usdcToken",
          "type": "address"
        }
      ],
      "stateMutability": "nonpayable",
      "type": "constructor"
    },
    {
      "inputs": [],
      "name": "AdminAlreadyExists",
      "type": "error"
    },
    {
      "inputs": [],
      "name": "AdminDoesNotExist",
      "type": "error"
    },
    {
      "inputs": [],
      "name": "AssetAlreadyPaid",
      "type": "error"
    },
    {
      "inputs": [],
      "name": "AssetAlreadySold",
      "type": "error"
    },
    {
      "inputs": [],
      "name": "AssetAlreadyVerified",
      "type": "error"
    },
    {
      "inputs": [],
      "name": "AssetDoesNotExist",
      "type": "error"
    },
    {
      "inputs": [],
      "name": "AssetNotPaid",
      "type": "error"
    },
    {
      "inputs": [],
      "name": "AssetNotVerified",
      "type": "error"
    },
    {
      "inputs": [],
      "name": "CannotBuyOwnShares",
      "type": "error"
    },
    {
      "inputs": [],
      "name": "CannotWithdrawYet",
      "type": "error"
    },
    {
      "inputs": [],
      "name": "ContractNotApproved",
      "type": "error"
    },
    {
      "inputs": [
        {
          "internalType": "address",
          "name": "sender",
          "type": "address"
        },
        {
          "internalType": "uint256",
          "name": "tokenId",
          "type": "uint256"
        },
        {
          "internalType": "address",
          "name": "owner",
          "type": "address"
        }
      ],
      "name": "ERC721IncorrectOwner",
      "type": "error"
    },
    {
      "inputs": [
        {
          "internalType": "address",
          "name": "operator",
          "type": "address"
        },
        {
          "internalType": "uint256",
          "name": "tokenId",
          "type": "uint256"
        }
      ],
      "name": "ERC721InsufficientApproval",
      "type": "error"
    },
    {
      "inputs": [
        {
          "internalType": "address",
          "name": "approver",
          "type": "address"
        }
      ],
      "name": "ERC721InvalidApprover",
      "type": "error"
    },
    {
      "inputs": [
        {
          "internalType": "address",
          "name": "operator",
          "type": "address"
        }
      ],
      "name": "ERC721InvalidOperator",
      "type": "error"
    },
    {
      "inputs": [
        {
          "internalType": "address",
          "name": "owner",
          "type": "address"
        }
      ],
      "name": "ERC721InvalidOwner",
      "type": "error"
    },
    {
      "inputs": [
        {
          "internalType": "address",
          "name": "receiver",
          "type": "address"
        }
      ],
      "name": "ERC721InvalidReceiver",
      "type": "error"
    },
    {
      "inputs": [
        {
          "internalType": "address",
          "name": "sender",
          "type": "address"
        }
      ],
      "name": "ERC721InvalidSender",
      "type": "error"
    },
    {
      "inputs": [
        {
          "internalType": "uint256",
          "name": "tokenId",
          "type": "uint256"
        }
      ],
      "name": "ERC721NonexistentToken",
      "type": "error"
    },
    {
      "inputs": [],
      "name": "FractionalAssetDoesNotExist",
      "type": "error"
    },
    {
      "inputs": [],
      "name": "FractionalizedAssetWithBuyers",
      "type": "error"
    },
    {
      "inputs": [],
      "name": "InsufficientTokens",
      "type": "error"
    },
    {
      "inputs": [],
      "name": "InsufficientUSDCBalance",
      "type": "error"
    },
    {
      "inputs": [],
      "name": "InvalidAmount",
      "type": "error"
    },
    {
      "inputs": [],
      "name": "InvalidPrice",
      "type": "error"
    },
    {
      "inputs": [],
      "name": "InvalidRecipient",
      "type": "error"
    },
    {
      "inputs": [],
      "name": "NoTokensIssued",
      "type": "error"
    },
    {
      "inputs": [],
      "name": "NoTokensOwned",
      "type": "error"
    },
    {
      "inputs": [
        {
          "internalType": "address",
          "name": "caller",
          "type": "address"
        }
      ],
      "name": "NotAdmin",
      "type": "error"
    },
    {
      "inputs": [],
      "name": "NotBuyer",
      "type": "error"
    },
    {
      "inputs": [],
      "name": "NotEnoughTokensOwned",
      "type": "error"
    },
    {
      "inputs": [],
      "name": "NotShareSeller",
      "type": "error"
    },
    {
      "inputs": [
        {
          "internalType": "address",
          "name": "owner",
          "type": "address"
        }
      ],
      "name": "OwnableInvalidOwner",
      "type": "error"
    },
    {
      "inputs": [
        {
          "internalType": "address",
          "name": "account",
          "type": "address"
        }
      ],
      "name": "OwnableUnauthorizedAccount",
      "type": "error"
    },
    {
      "inputs": [],
      "name": "ReentrancyGuardReentrantCall",
      "type": "error"
    },
    {
      "inputs": [
        {
          "internalType": "address",
          "name": "token",
          "type": "address"
        }
      ],
      "name": "SafeERC20FailedOperation",
      "type": "error"
    },
    {
      "inputs": [],
      "name": "SellerAlreadyRegistered",
      "type": "error"
    },
    {
      "inputs": [],
      "name": "SellerNotOwner",
      "type": "error"
    },
    {
      "inputs": [],
      "name": "SellerNotRegistered",
      "type": "error"
    },
    {
      "inputs": [],
      "name": "ShareListingNotActive",
      "type": "error"
    },
    {
      "inputs": [],
      "name": "ShareListingNotFound",
      "type": "error"
    },
    {
      "anonymous": false,
      "inputs": [
        {
          "indexed": true,
          "internalType": "address",
          "name": "owner",
          "type": "address"
        },
        {
          "indexed": true,
          "internalType": "address",
          "name": "approved",
          "type": "address"
        },
        {
          "indexed": true,
          "internalType": "uint256",
          "name": "tokenId",
          "type": "uint256"
        }
      ],
      "name": "Approval",
      "type": "event"
    },
    {
      "anonymous": false,
      "inputs": [
        {
          "indexed": true,
          "internalType": "address",
          "name": "owner",
          "type": "address"
        },
        {
          "indexed": true,
          "internalType": "address",
          "name": "operator",
          "type": "address"
        },
        {
          "indexed": false,
          "internalType": "bool",
          "name": "approved",
          "type": "bool"
        }
      ],
      "name": "ApprovalForAll",
      "type": "event"
    },
    {
      "anonymous": false,
      "inputs": [
        {
          "indexed": true,
          "internalType": "uint256",
          "name": "tokenId",
          "type": "uint256"
        },
        {
          "indexed": true,
          "internalType": "address",
          "name": "buyer",
          "type": "address"
        }
      ],
      "name": "AssetCanceled",
      "type": "event"
    },
    {
      "anonymous": false,
      "inputs": [
        {
          "indexed": true,
          "internalType": "uint256",
          "name": "tokenId",
          "type": "uint256"
        },
        {
          "indexed": false,
          "internalType": "uint256",
          "name": "priceInEth",
          "type": "uint256"
        },
        {
          "indexed": true,
          "internalType": "address",
          "name": "seller",
          "type": "address"
        },
        {
          "indexed": false,
          "internalType": "bool",
          "name": "verified",
          "type": "bool"
        }
      ],
      "name": "AssetCreated",
      "type": "event"
    },
    {
      "anonymous": false,
      "inputs": [
        {
          "indexed": true,
          "internalType": "uint256",
          "name": "tokenId",
          "type": "uint256"
        },
        {
          "indexed": true,
          "internalType": "address",
          "name": "seller",
          "type": "address"
        }
      ],
      "name": "AssetDelisted",
      "type": "event"
    },
    {
      "anonymous": false,
      "inputs": [
        {
          "indexed": true,
          "internalType": "uint256",
          "name": "tokenId",
          "type": "uint256"
        },
        {
          "indexed": true,
          "internalType": "address",
          "name": "buyer",
          "type": "address"
        }
      ],
      "name": "AssetPaymentConfirmed",
      "type": "event"
    },
    {
      "anonymous": false,
      "inputs": [
        {
          "indexed": true,
          "internalType": "uint256",
          "name": "tokenId",
          "type": "uint256"
        },
        {
          "indexed": true,
          "internalType": "address",
          "name": "buyer",
          "type": "address"
        },
        {
          "indexed": false,
          "internalType": "uint256",
          "name": "priceInEth",
          "type": "uint256"
        }
      ],
      "name": "AssetPurchased",
      "type": "event"
    },
    {
      "anonymous": false,
      "inputs": [
        {
          "indexed": true,
          "internalType": "uint256",
          "name": "tokenId",
          "type": "uint256"
        },
        {
          "indexed": true,
          "internalType": "address",
          "name": "seller",
          "type": "address"
        }
      ],
      "name": "AssetVerified",
      "type": "event"
    },
    {
      "anonymous": false,
      "inputs": [
        {
          "indexed": false,
          "internalType": "uint256",
          "name": "_fromTokenId",
          "type": "uint256"
        },
        {
          "indexed": false,
          "internalType": "uint256",
          "name": "_toTokenId",
          "type": "uint256"
        }
      ],
      "name": "BatchMetadataUpdate",
      "type": "event"
    },
    {
      "anonymous": false,
      "inputs": [
        {
          "indexed": true,
          "internalType": "uint256",
          "name": "tokenId",
          "type": "uint256"
        },
        {
          "indexed": false,
          "internalType": "uint256",
          "name": "totalTokensInEth",
          "type": "uint256"
        },
        {
          "indexed": false,
          "internalType": "uint256",
          "name": "pricePerTokenInEth",
          "type": "uint256"
        },
        {
          "indexed": true,
          "internalType": "address",
          "name": "seller",
          "type": "address"
        }
      ],
      "name": "FractionalAssetCreated",
      "type": "event"
    },
    {
      "anonymous": false,
      "inputs": [
        {
          "indexed": true,
          "internalType": "uint256",
          "name": "tokenId",
          "type": "uint256"
        },
        {
          "indexed": true,
          "internalType": "address",
          "name": "buyer",
          "type": "address"
        },
        {
          "indexed": false,
          "internalType": "uint256",
          "name": "numTokensInEth",
          "type": "uint256"
        },
        {
          "indexed": false,
          "internalType": "uint256",
          "name": "totalPriceInEth",
          "type": "uint256"
        }
      ],
      "name": "FractionalAssetPurchased",
      "type": "event"
    },
    {
      "anonymous": false,
      "inputs": [
        {
          "indexed": true,
          "internalType": "uint256",
          "name": "tokenId",
          "type": "uint256"
        },
        {
          "indexed": false,
          "internalType": "uint256",
          "name": "totalAmountInEth",
          "type": "uint256"
        },
        {
          "indexed": false,
          "internalType": "address[]",
          "name": "buyers",
          "type": "address[]"
        },
        {
          "indexed": false,
          "internalType": "uint256[]",
          "name": "amounts",
          "type": "uint256[]"
        }
      ],
      "name": "FractionalDividendsDistributed",
      "type": "event"
    },
    {
      "anonymous": false,
      "inputs": [
        {
          "indexed": false,
          "internalType": "uint256",
          "name": "_tokenId",
          "type": "uint256"
        }
      ],
      "name": "MetadataUpdate",
      "type": "event"
    },
    {
      "anonymous": false,
      "inputs": [
        {
          "indexed": true,
          "internalType": "address",
          "name": "previousOwner",
          "type": "address"
        },
        {
          "indexed": true,
          "internalType": "address",
          "name": "newOwner",
          "type": "address"
        }
      ],
      "name": "OwnershipTransferred",
      "type": "event"
    },
    {
      "anonymous": false,
      "inputs": [
        {
          "indexed": true,
          "internalType": "address",
          "name": "sellerAddress",
          "type": "address"
        }
      ],
      "name": "SellerRegistered",
      "type": "event"
    },
    {
      "anonymous": false,
      "inputs": [
        {
          "indexed": true,
          "internalType": "uint256",
          "name": "listingId",
          "type": "uint256"
        },
        {
          "indexed": true,
          "internalType": "uint256",
          "name": "tokenId",
          "type": "uint256"
        },
        {
          "indexed": true,
          "internalType": "address",
          "name": "seller",
          "type": "address"
        }
      ],
      "name": "ShareListingCanceled",
      "type": "event"
    },
    {
      "anonymous": false,
      "inputs": [
        {
          "indexed": true,
          "internalType": "uint256",
          "name": "listingId",
          "type": "uint256"
        },
        {
          "indexed": true,
          "internalType": "uint256",
          "name": "tokenId",
          "type": "uint256"
        },
        {
          "indexed": true,
          "internalType": "address",
          "name": "seller",
          "type": "address"
        },
        {
          "indexed": false,
          "internalType": "uint256",
          "name": "numSharesInEth",
          "type": "uint256"
        },
        {
          "indexed": false,
          "internalType": "uint256",
          "name": "pricePerShareInEth",
          "type": "uint256"
        }
      ],
      "name": "SharesListed",
      "type": "event"
    },
    {
      "anonymous": false,
      "inputs": [
        {
          "indexed": true,
          "internalType": "uint256",
          "name": "listingId",
          "type": "uint256"
        },
        {
          "indexed": true,
          "internalType": "uint256",
          "name": "tokenId",
          "type": "uint256"
        },
        {
          "indexed": true,
          "internalType": "address",
          "name": "buyer",
          "type": "address"
        },
        {
          "indexed": false,
          "internalType": "address",
          "name": "seller",
          "type": "address"
        },
        {
          "indexed": false,
          "internalType": "uint256",
          "name": "numSharesInEth",
          "type": "uint256"
        },
        {
          "indexed": false,
          "internalType": "uint256",
          "name": "totalPriceInEth",
          "type": "uint256"
        }
      ],
      "name": "SharesPurchased",
      "type": "event"
    },
    {
      "anonymous": false,
      "inputs": [
        {
          "indexed": true,
          "internalType": "uint256",
          "name": "tokenId",
          "type": "uint256"
        },
        {
          "indexed": true,
          "internalType": "address",
          "name": "from",
          "type": "address"
        },
        {
          "indexed": true,
          "internalType": "address",
          "name": "to",
          "type": "address"
        },
        {
          "indexed": false,
          "internalType": "uint256",
          "name": "numSharesInEth",
          "type": "uint256"
        }
      ],
      "name": "SharesTransferred",
      "type": "event"
    },
    {
      "anonymous": false,
      "inputs": [
        {
          "indexed": true,
          "internalType": "address",
          "name": "from",
          "type": "address"
        },
        {
          "indexed": true,
          "internalType": "address",
          "name": "to",
          "type": "address"
        },
        {
          "indexed": true,
          "internalType": "uint256",
          "name": "tokenId",
          "type": "uint256"
        }
      ],
      "name": "Transfer",
      "type": "event"
    },
    {
      "anonymous": false,
      "inputs": [
        {
          "indexed": true,
          "internalType": "address",
          "name": "recipient",
          "type": "address"
        },
        {
          "indexed": false,
          "internalType": "uint256",
          "name": "amountInEth",
          "type": "uint256"
        }
      ],
      "name": "USDCWithdrawn",
      "type": "event"
    },
    {
      "inputs": [
        {
          "internalType": "address",
          "name": "_admin",
          "type": "address"
        }
      ],
      "name": "addAdmin",
      "outputs": [],
      "stateMutability": "nonpayable",
      "type": "function"
    },
    {
      "inputs": [
        {
          "internalType": "address",
          "name": "to",
          "type": "address"
        },
        {
          "internalType": "uint256",
          "name": "tokenId",
          "type": "uint256"
        }
      ],
      "name": "approve",
      "outputs": [],
      "stateMutability": "nonpayable",
      "type": "function"
    },
    {
      "inputs": [
        {
          "internalType": "address",
          "name": "owner",
          "type": "address"
        }
      ],
      "name": "balanceOf",
      "outputs": [
        {
          "internalType": "uint256",
          "name": "",
          "type": "uint256"
        }
      ],
      "stateMutability": "view",
      "type": "function"
    },
    {
      "inputs": [
        {
          "internalType": "uint256",
          "name": "tokenId",
          "type": "uint256"
        }
      ],
      "name": "buyAsset",
      "outputs": [],
      "stateMutability": "nonpayable",
      "type": "function"
    },
    {
      "inputs": [
        {
          "internalType": "uint256",
          "name": "tokenId",
          "type": "uint256"
        },
        {
          "internalType": "uint256",
          "name": "numTokensInEth",
          "type": "uint256"
        }
      ],
      "name": "buyFractionalAsset",
      "outputs": [],
      "stateMutability": "nonpayable",
      "type": "function"
    },
    {
      "inputs": [
        {
          "internalType": "uint256",
          "name": "listingId",
          "type": "uint256"
        }
      ],
      "name": "buyListedShares",
      "outputs": [],
      "stateMutability": "nonpayable",
      "type": "function"
    },
    {
      "inputs": [
        {
          "internalType": "uint256",
          "name": "",
          "type": "uint256"
        }
      ],
      "name": "buyerCanWithdraw",
      "outputs": [
        {
          "internalType": "bool",
          "name": "",
          "type": "bool"
        }
      ],
      "stateMutability": "view",
      "type": "function"
    },
    {
      "inputs": [
        {
          "internalType": "uint256",
          "name": "tokenId",
          "type": "uint256"
        }
      ],
      "name": "cancelAssetPurchase",
      "outputs": [],
      "stateMutability": "nonpayable",
      "type": "function"
    },
    {
      "inputs": [
        {
          "internalType": "uint256",
          "name": "tokenId",
          "type": "uint256"
        },
        {
          "internalType": "uint256",
          "name": "numTokensInEth",
          "type": "uint256"
        }
      ],
      "name": "cancelFractionalAssetPurchase",
      "outputs": [],
      "stateMutability": "nonpayable",
      "type": "function"
    },
    {
      "inputs": [
        {
          "internalType": "uint256",
          "name": "listingId",
          "type": "uint256"
        }
      ],
      "name": "cancelShareListing",
      "outputs": [],
      "stateMutability": "nonpayable",
      "type": "function"
    },
    {
      "inputs": [
        {
          "internalType": "uint256",
          "name": "tokenId",
          "type": "uint256"
        }
      ],
      "name": "confirmAssetPayment",
      "outputs": [],
      "stateMutability": "nonpayable",
      "type": "function"
    },
    {
      "inputs": [
        {
          "internalType": "string",
          "name": "_tokenURI",
          "type": "string"
        },
        {
          "internalType": "uint256",
          "name": "_priceInEth",
          "type": "uint256"
        }
      ],
      "name": "createAsset",
      "outputs": [],
      "stateMutability": "nonpayable",
      "type": "function"
    },
    {
      "inputs": [
        {
          "internalType": "uint256",
          "name": "tokenId",
          "type": "uint256"
        },
        {
          "internalType": "uint256",
          "name": "totalTokensInEth",
          "type": "uint256"
        }
      ],
      "name": "createFractionalAsset",
      "outputs": [],
      "stateMutability": "nonpayable",
      "type": "function"
    },
    {
      "inputs": [
        {
          "internalType": "uint256",
          "name": "tokenId",
          "type": "uint256"
        }
      ],
      "name": "delistAsset",
      "outputs": [],
      "stateMutability": "nonpayable",
      "type": "function"
    },
    {
      "inputs": [
        {
          "internalType": "uint256",
          "name": "tokenId",
          "type": "uint256"
        }
      ],
      "name": "delistAssetAdmin",
      "outputs": [],
      "stateMutability": "nonpayable",
      "type": "function"
    },
    {
      "inputs": [
        {
          "internalType": "uint256",
          "name": "tokenId",
          "type": "uint256"
        },
        {
          "internalType": "uint256",
          "name": "amountInEth",
          "type": "uint256"
        }
      ],
      "name": "distributeFractionalDividends",
      "outputs": [],
      "stateMutability": "nonpayable",
      "type": "function"
    },
    {
      "inputs": [],
      "name": "fetchAllAssetsWithDisplayInfo",
      "outputs": [
        {
          "components": [
            {
              "internalType": "uint256",
              "name": "tokenId",
              "type": "uint256"
            },
            {
              "internalType": "uint256",
              "name": "priceInEth",
              "type": "uint256"
            },
            {
              "internalType": "address",
              "name": "seller",
              "type": "address"
            },
            {
              "internalType": "bool",
              "name": "sold",
              "type": "bool"
            },
            {
              "internalType": "bool",
              "name": "verified",
              "type": "bool"
            },
            {
              "internalType": "bool",
              "name": "isPaidFor",
              "type": "bool"
            },
            {
              "internalType": "bool",
              "name": "isCanceled",
              "type": "bool"
            },
            {
              "internalType": "address",
              "name": "currentBuyer",
              "type": "address"
            },
            {
              "internalType": "string",
              "name": "tokenURI",
              "type": "string"
            },
            {
              "internalType": "bool",
              "name": "isFractionalized",
              "type": "bool"
            },
            {
              "internalType": "uint256",
              "name": "totalFractionalTokens",
              "type": "uint256"
            },
            {
              "internalType": "uint256",
              "name": "remainingFractionalTokens",
              "type": "uint256"
            },
            {
              "internalType": "uint256",
              "name": "pricePerFractionalTokenInEth",
              "type": "uint256"
            },
            {
              "internalType": "uint256",
              "name": "accumulatedFractionalPaymentsInEth",
              "type": "uint256"
            }
          ],
          "internalType": "struct PropVeraTypes.AssetDisplayInfo[]",
          "name": "",
          "type": "tuple[]"
        }
      ],
      "stateMutability": "view",
      "type": "function"
    },
    {
      "inputs": [],
      "name": "fetchAllListedAssets",
      "outputs": [
        {
          "components": [
            {
              "internalType": "uint256",
              "name": "tokenId",
              "type": "uint256"
            },
            {
              "internalType": "uint256",
              "name": "price",
              "type": "uint256"
            },
            {
              "internalType": "address payable",
              "name": "seller",
              "type": "address"
            },
            {
              "internalType": "bool",
              "name": "sold",
              "type": "bool"
            },
            {
              "internalType": "bool",
              "name": "verified",
              "type": "bool"
            }
          ],
          "internalType": "struct PropVeraTypes.RealEstateAsset[]",
          "name": "",
          "type": "tuple[]"
        }
      ],
      "stateMutability": "view",
      "type": "function"
    },
    {
      "inputs": [
        {
          "internalType": "uint256",
          "name": "tokenId",
          "type": "uint256"
        }
      ],
      "name": "fetchAsset",
      "outputs": [
        {
          "components": [
            {
              "internalType": "uint256",
              "name": "tokenId",
              "type": "uint256"
            },
            {
              "internalType": "uint256",
              "name": "price",
              "type": "uint256"
            },
            {
              "internalType": "address payable",
              "name": "seller",
              "type": "address"
            },
            {
              "internalType": "bool",
              "name": "sold",
              "type": "bool"
            },
            {
              "internalType": "bool",
              "name": "verified",
              "type": "bool"
            }
          ],
          "internalType": "struct PropVeraTypes.RealEstateAsset",
          "name": "",
          "type": "tuple"
        }
      ],
      "stateMutability": "view",
      "type": "function"
    },
    {
      "inputs": [],
      "name": "fetchAvailableAssets",
      "outputs": [
        {
          "components": [
            {
              "internalType": "uint256",
              "name": "tokenId",
              "type": "uint256"
            },
            {
              "internalType": "uint256",
              "name": "priceInEth",
              "type": "uint256"
            },
            {
              "internalType": "address",
              "name": "seller",
              "type": "address"
            },
            {
              "internalType": "bool",
              "name": "sold",
              "type": "bool"
            },
            {
              "internalType": "bool",
              "name": "verified",
              "type": "bool"
            },
            {
              "internalType": "bool",
              "name": "isPaidFor",
              "type": "bool"
            },
            {
              "internalType": "bool",
              "name": "isCanceled",
              "type": "bool"
            },
            {
              "internalType": "address",
              "name": "currentBuyer",
              "type": "address"
            },
            {
              "internalType": "string",
              "name": "tokenURI",
              "type": "string"
            },
            {
              "internalType": "bool",
              "name": "isFractionalized",
              "type": "bool"
            },
            {
              "internalType": "uint256",
              "name": "totalFractionalTokens",
              "type": "uint256"
            },
            {
              "internalType": "uint256",
              "name": "remainingFractionalTokens",
              "type": "uint256"
            },
            {
              "internalType": "uint256",
              "name": "pricePerFractionalTokenInEth",
              "type": "uint256"
            },
            {
              "internalType": "uint256",
              "name": "accumulatedFractionalPaymentsInEth",
              "type": "uint256"
            }
          ],
          "internalType": "struct PropVeraTypes.AssetDisplayInfo[]",
          "name": "",
          "type": "tuple[]"
        }
      ],
      "stateMutability": "view",
      "type": "function"
    },
    {
      "inputs": [
        {
          "internalType": "uint256",
          "name": "tokenId",
          "type": "uint256"
        }
      ],
      "name": "fetchFractionalAssetBuyers",
      "outputs": [
        {
          "components": [
            {
              "internalType": "address",
              "name": "buyer",
              "type": "address"
            },
            {
              "internalType": "uint256",
              "name": "numTokens",
              "type": "uint256"
            },
            {
              "internalType": "uint256",
              "name": "percentage",
              "type": "uint256"
            }
          ],
          "internalType": "struct PropVeraTypes.FractionalBuyer[]",
          "name": "",
          "type": "tuple[]"
        }
      ],
      "stateMutability": "view",
      "type": "function"
    },
    {
      "inputs": [],
      "name": "fetchFractionalizedAssets",
      "outputs": [
        {
          "components": [
            {
              "internalType": "uint256",
              "name": "tokenId",
              "type": "uint256"
            },
            {
              "internalType": "uint256",
              "name": "priceInEth",
              "type": "uint256"
            },
            {
              "internalType": "address",
              "name": "seller",
              "type": "address"
            },
            {
              "internalType": "bool",
              "name": "sold",
              "type": "bool"
            },
            {
              "internalType": "bool",
              "name": "verified",
              "type": "bool"
            },
            {
              "internalType": "bool",
              "name": "isPaidFor",
              "type": "bool"
            },
            {
              "internalType": "bool",
              "name": "isCanceled",
              "type": "bool"
            },
            {
              "internalType": "address",
              "name": "currentBuyer",
              "type": "address"
            },
            {
              "internalType": "string",
              "name": "tokenURI",
              "type": "string"
            },
            {
              "internalType": "bool",
              "name": "isFractionalized",
              "type": "bool"
            },
            {
              "internalType": "uint256",
              "name": "totalFractionalTokens",
              "type": "uint256"
            },
            {
              "internalType": "uint256",
              "name": "remainingFractionalTokens",
              "type": "uint256"
            },
            {
              "internalType": "uint256",
              "name": "pricePerFractionalTokenInEth",
              "type": "uint256"
            },
            {
              "internalType": "uint256",
              "name": "accumulatedFractionalPaymentsInEth",
              "type": "uint256"
            }
          ],
          "internalType": "struct PropVeraTypes.AssetDisplayInfo[]",
          "name": "",
          "type": "tuple[]"
        }
      ],
      "stateMutability": "view",
      "type": "function"
    },
    {
      "inputs": [],
      "name": "fetchUnsoldAssets",
      "outputs": [
        {
          "components": [
            {
              "internalType": "uint256",
              "name": "tokenId",
              "type": "uint256"
            },
            {
              "internalType": "uint256",
              "name": "price",
              "type": "uint256"
            },
            {
              "internalType": "address payable",
              "name": "seller",
              "type": "address"
            },
            {
              "internalType": "bool",
              "name": "sold",
              "type": "bool"
            },
            {
              "internalType": "bool",
              "name": "verified",
              "type": "bool"
            }
          ],
          "internalType": "struct PropVeraTypes.RealEstateAsset[]",
          "name": "",
          "type": "tuple[]"
        }
      ],
      "stateMutability": "view",
      "type": "function"
    },
    {
      "inputs": [
        {
          "internalType": "uint256",
          "name": "",
          "type": "uint256"
        }
      ],
      "name": "fractionalAssets",
      "outputs": [
        {
          "internalType": "uint256",
          "name": "tokenId",
          "type": "uint256"
        },
        {
          "internalType": "uint256",
          "name": "totalTokens",
          "type": "uint256"
        },
        {
          "internalType": "uint256",
          "name": "pricePerToken",
          "type": "uint256"
        },
        {
          "internalType": "address payable",
          "name": "seller",
          "type": "address"
        }
      ],
      "stateMutability": "view",
      "type": "function"
    },
    {
      "inputs": [],
      "name": "getAllActiveShareListings",
      "outputs": [
        {
          "components": [
            {
              "internalType": "uint256",
              "name": "listingId",
              "type": "uint256"
            },
            {
              "internalType": "uint256",
              "name": "tokenId",
              "type": "uint256"
            },
            {
              "internalType": "address",
              "name": "seller",
              "type": "address"
            },
            {
              "internalType": "bool",
              "name": "active",
              "type": "bool"
            },
            {
              "internalType": "uint256",
              "name": "numShares",
              "type": "uint256"
            },
            {
              "internalType": "uint256",
              "name": "pricePerShare",
              "type": "uint256"
            }
          ],
          "internalType": "struct PropVeraTypes.ShareListing[]",
          "name": "",
          "type": "tuple[]"
        }
      ],
      "stateMutability": "view",
      "type": "function"
    },
    {
      "inputs": [
        {
          "internalType": "uint256",
          "name": "tokenId",
          "type": "uint256"
        }
      ],
      "name": "getApproved",
      "outputs": [
        {
          "internalType": "address",
          "name": "",
          "type": "address"
        }
      ],
      "stateMutability": "view",
      "type": "function"
    },
    {
      "inputs": [
        {
          "internalType": "uint256",
          "name": "tokenId",
          "type": "uint256"
        }
      ],
      "name": "getAssetBuyer",
      "outputs": [
        {
          "internalType": "address",
          "name": "",
          "type": "address"
        }
      ],
      "stateMutability": "view",
      "type": "function"
    },
    {
      "inputs": [
        {
          "internalType": "uint256",
          "name": "tokenId",
          "type": "uint256"
        }
      ],
      "name": "getAssetDisplayInfo",
      "outputs": [
        {
          "components": [
            {
              "internalType": "uint256",
              "name": "tokenId",
              "type": "uint256"
            },
            {
              "internalType": "uint256",
              "name": "priceInEth",
              "type": "uint256"
            },
            {
              "internalType": "address",
              "name": "seller",
              "type": "address"
            },
            {
              "internalType": "bool",
              "name": "sold",
              "type": "bool"
            },
            {
              "internalType": "bool",
              "name": "verified",
              "type": "bool"
            },
            {
              "internalType": "bool",
              "name": "isPaidFor",
              "type": "bool"
            },
            {
              "internalType": "bool",
              "name": "isCanceled",
              "type": "bool"
            },
            {
              "internalType": "address",
              "name": "currentBuyer",
              "type": "address"
            },
            {
              "internalType": "string",
              "name": "tokenURI",
              "type": "string"
            },
            {
              "internalType": "bool",
              "name": "isFractionalized",
              "type": "bool"
            },
            {
              "internalType": "uint256",
              "name": "totalFractionalTokens",
              "type": "uint256"
            },
            {
              "internalType": "uint256",
              "name": "remainingFractionalTokens",
              "type": "uint256"
            },
            {
              "internalType": "uint256",
              "name": "pricePerFractionalTokenInEth",
              "type": "uint256"
            },
            {
              "internalType": "uint256",
              "name": "accumulatedFractionalPaymentsInEth",
              "type": "uint256"
            }
          ],
          "internalType": "struct PropVeraTypes.AssetDisplayInfo",
          "name": "",
          "type": "tuple"
        }
      ],
      "stateMutability": "view",
      "type": "function"
    },
    {
      "inputs": [
        {
          "internalType": "uint256",
          "name": "tokenId",
          "type": "uint256"
        }
      ],
      "name": "getAssetShareListings",
      "outputs": [
        {
          "components": [
            {
              "internalType": "uint256",
              "name": "listingId",
              "type": "uint256"
            },
            {
              "internalType": "uint256",
              "name": "tokenId",
              "type": "uint256"
            },
            {
              "internalType": "address",
              "name": "seller",
              "type": "address"
            },
            {
              "internalType": "bool",
              "name": "active",
              "type": "bool"
            },
            {
              "internalType": "uint256",
              "name": "numShares",
              "type": "uint256"
            },
            {
              "internalType": "uint256",
              "name": "pricePerShare",
              "type": "uint256"
            }
          ],
          "internalType": "struct PropVeraTypes.ShareListing[]",
          "name": "",
          "type": "tuple[]"
        }
      ],
      "stateMutability": "view",
      "type": "function"
    },
    {
      "inputs": [
        {
          "internalType": "address",
          "name": "buyer",
          "type": "address"
        },
        {
          "internalType": "uint256",
          "name": "tokenId",
          "type": "uint256"
        }
      ],
      "name": "getBuyerFractions",
      "outputs": [
        {
          "internalType": "uint256",
          "name": "",
          "type": "uint256"
        }
      ],
      "stateMutability": "view",
      "type": "function"
    },
    {
      "inputs": [
        {
          "internalType": "address",
          "name": "buyer",
          "type": "address"
        }
      ],
      "name": "getBuyerPortfolio",
      "outputs": [
        {
          "components": [
            {
              "internalType": "uint256",
              "name": "tokenId",
              "type": "uint256"
            },
            {
              "internalType": "uint256",
              "name": "fractionalTokensOwned",
              "type": "uint256"
            },
            {
              "internalType": "uint256",
              "name": "ownershipPercentage",
              "type": "uint256"
            },
            {
              "internalType": "uint256",
              "name": "investmentValueInEth",
              "type": "uint256"
            }
          ],
          "internalType": "struct PropVeraTypes.BuyerPortfolio[]",
          "name": "",
          "type": "tuple[]"
        }
      ],
      "stateMutability": "view",
      "type": "function"
    },
    {
      "inputs": [
        {
          "internalType": "uint256",
          "name": "tokenId",
          "type": "uint256"
        }
      ],
      "name": "getFractionalAssetBuyersList",
      "outputs": [
        {
          "internalType": "address[]",
          "name": "",
          "type": "address[]"
        }
      ],
      "stateMutability": "view",
      "type": "function"
    },
    {
      "inputs": [
        {
          "internalType": "uint256",
          "name": "tokenId",
          "type": "uint256"
        }
      ],
      "name": "getFractionalPayments",
      "outputs": [
        {
          "internalType": "uint256",
          "name": "",
          "type": "uint256"
        }
      ],
      "stateMutability": "view",
      "type": "function"
    },
    {
      "inputs": [
        {
          "internalType": "address",
          "name": "seller",
          "type": "address"
        }
      ],
      "name": "getSellerAssets",
      "outputs": [
        {
          "components": [
            {
              "internalType": "uint256",
              "name": "tokenId",
              "type": "uint256"
            },
            {
              "internalType": "uint256",
              "name": "priceInEth",
              "type": "uint256"
            },
            {
              "internalType": "address",
              "name": "seller",
              "type": "address"
            },
            {
              "internalType": "bool",
              "name": "sold",
              "type": "bool"
            },
            {
              "internalType": "bool",
              "name": "verified",
              "type": "bool"
            },
            {
              "internalType": "bool",
              "name": "isPaidFor",
              "type": "bool"
            },
            {
              "internalType": "bool",
              "name": "isCanceled",
              "type": "bool"
            },
            {
              "internalType": "address",
              "name": "currentBuyer",
              "type": "address"
            },
            {
              "internalType": "string",
              "name": "tokenURI",
              "type": "string"
            },
            {
              "internalType": "bool",
              "name": "isFractionalized",
              "type": "bool"
            },
            {
              "internalType": "uint256",
              "name": "totalFractionalTokens",
              "type": "uint256"
            },
            {
              "internalType": "uint256",
              "name": "remainingFractionalTokens",
              "type": "uint256"
            },
            {
              "internalType": "uint256",
              "name": "pricePerFractionalTokenInEth",
              "type": "uint256"
            },
            {
              "internalType": "uint256",
              "name": "accumulatedFractionalPaymentsInEth",
              "type": "uint256"
            }
          ],
          "internalType": "struct PropVeraTypes.AssetDisplayInfo[]",
          "name": "",
          "type": "tuple[]"
        }
      ],
      "stateMutability": "view",
      "type": "function"
    },
    {
      "inputs": [
        {
          "internalType": "address",
          "name": "sellerAddress",
          "type": "address"
        }
      ],
      "name": "getSellerMetrics",
      "outputs": [
        {
          "internalType": "uint256",
          "name": "",
          "type": "uint256"
        },
        {
          "internalType": "uint256",
          "name": "",
          "type": "uint256"
        }
      ],
      "stateMutability": "view",
      "type": "function"
    },
    {
      "inputs": [
        {
          "internalType": "address",
          "name": "",
          "type": "address"
        }
      ],
      "name": "isAdmin",
      "outputs": [
        {
          "internalType": "bool",
          "name": "",
          "type": "bool"
        }
      ],
      "stateMutability": "view",
      "type": "function"
    },
    {
      "inputs": [
        {
          "internalType": "address",
          "name": "owner",
          "type": "address"
        },
        {
          "internalType": "address",
          "name": "operator",
          "type": "address"
        }
      ],
      "name": "isApprovedForAll",
      "outputs": [
        {
          "internalType": "bool",
          "name": "",
          "type": "bool"
        }
      ],
      "stateMutability": "view",
      "type": "function"
    },
    {
      "inputs": [
        {
          "internalType": "uint256",
          "name": "tokenId",
          "type": "uint256"
        }
      ],
      "name": "isAssetCanceled",
      "outputs": [
        {
          "internalType": "bool",
          "name": "",
          "type": "bool"
        }
      ],
      "stateMutability": "view",
      "type": "function"
    },
    {
      "inputs": [
        {
          "internalType": "uint256",
          "name": "tokenId",
          "type": "uint256"
        }
      ],
      "name": "isAssetPaidFor",
      "outputs": [
        {
          "internalType": "bool",
          "name": "",
          "type": "bool"
        }
      ],
      "stateMutability": "view",
      "type": "function"
    },
    {
      "inputs": [
        {
          "internalType": "uint256",
          "name": "tokenId",
          "type": "uint256"
        },
        {
          "internalType": "uint256",
          "name": "numSharesInEth",
          "type": "uint256"
        },
        {
          "internalType": "uint256",
          "name": "pricePerShareInEth",
          "type": "uint256"
        }
      ],
      "name": "listSharesForSale",
      "outputs": [],
      "stateMutability": "nonpayable",
      "type": "function"
    },
    {
      "inputs": [],
      "name": "name",
      "outputs": [
        {
          "internalType": "string",
          "name": "",
          "type": "string"
        }
      ],
      "stateMutability": "view",
      "type": "function"
    },
    {
      "inputs": [
        {
          "internalType": "address",
          "name": "",
          "type": "address"
        },
        {
          "internalType": "address",
          "name": "",
          "type": "address"
        },
        {
          "internalType": "uint256",
          "name": "",
          "type": "uint256"
        },
        {
          "internalType": "bytes",
          "name": "",
          "type": "bytes"
        }
      ],
      "name": "onERC721Received",
      "outputs": [
        {
          "internalType": "bytes4",
          "name": "",
          "type": "bytes4"
        }
      ],
      "stateMutability": "nonpayable",
      "type": "function"
    },
    {
      "inputs": [],
      "name": "owner",
      "outputs": [
        {
          "internalType": "address",
          "name": "",
          "type": "address"
        }
      ],
      "stateMutability": "view",
      "type": "function"
    },
    {
      "inputs": [
        {
          "internalType": "uint256",
          "name": "tokenId",
          "type": "uint256"
        }
      ],
      "name": "ownerOf",
      "outputs": [
        {
          "internalType": "address",
          "name": "",
          "type": "address"
        }
      ],
      "stateMutability": "view",
      "type": "function"
    },
    {
      "inputs": [
        {
          "internalType": "uint256",
          "name": "",
          "type": "uint256"
        }
      ],
      "name": "realEstateAssets",
      "outputs": [
        {
          "internalType": "uint256",
          "name": "tokenId",
          "type": "uint256"
        },
        {
          "internalType": "uint256",
          "name": "price",
          "type": "uint256"
        },
        {
          "internalType": "address payable",
          "name": "seller",
          "type": "address"
        },
        {
          "internalType": "bool",
          "name": "sold",
          "type": "bool"
        },
        {
          "internalType": "bool",
          "name": "verified",
          "type": "bool"
        }
      ],
      "stateMutability": "view",
      "type": "function"
    },
    {
      "inputs": [],
      "name": "realEstateToken",
      "outputs": [
        {
          "internalType": "contract PropVeraFractionalToken",
          "name": "",
          "type": "address"
        }
      ],
      "stateMutability": "view",
      "type": "function"
    },
    {
      "inputs": [],
      "name": "registerSeller",
      "outputs": [],
      "stateMutability": "nonpayable",
      "type": "function"
    },
    {
      "inputs": [
        {
          "internalType": "address",
          "name": "_admin",
          "type": "address"
        }
      ],
      "name": "removeAdmin",
      "outputs": [],
      "stateMutability": "nonpayable",
      "type": "function"
    },
    {
      "inputs": [],
      "name": "renounceOwnership",
      "outputs": [],
      "stateMutability": "nonpayable",
      "type": "function"
    },
    {
      "inputs": [
        {
          "internalType": "address",
          "name": "from",
          "type": "address"
        },
        {
          "internalType": "address",
          "name": "to",
          "type": "address"
        },
        {
          "internalType": "uint256",
          "name": "tokenId",
          "type": "uint256"
        }
      ],
      "name": "safeTransferFrom",
      "outputs": [],
      "stateMutability": "nonpayable",
      "type": "function"
    },
    {
      "inputs": [
        {
          "internalType": "address",
          "name": "from",
          "type": "address"
        },
        {
          "internalType": "address",
          "name": "to",
          "type": "address"
        },
        {
          "internalType": "uint256",
          "name": "tokenId",
          "type": "uint256"
        },
        {
          "internalType": "bytes",
          "name": "data",
          "type": "bytes"
        }
      ],
      "name": "safeTransferFrom",
      "outputs": [],
      "stateMutability": "nonpayable",
      "type": "function"
    },
    {
      "inputs": [
        {
          "internalType": "address",
          "name": "",
          "type": "address"
        }
      ],
      "name": "sellers",
      "outputs": [
        {
          "internalType": "bool",
          "name": "",
          "type": "bool"
        }
      ],
      "stateMutability": "view",
      "type": "function"
    },
    {
      "inputs": [
        {
          "internalType": "address",
          "name": "operator",
          "type": "address"
        },
        {
          "internalType": "bool",
          "name": "approved",
          "type": "bool"
        }
      ],
      "name": "setApprovalForAll",
      "outputs": [],
      "stateMutability": "nonpayable",
      "type": "function"
    },
    {
      "inputs": [
        {
          "internalType": "uint256",
          "name": "tokenId",
          "type": "uint256"
        },
        {
          "internalType": "bool",
          "name": "canWithdraw",
          "type": "bool"
        }
      ],
      "name": "setBuyerCanWithdraw",
      "outputs": [],
      "stateMutability": "nonpayable",
      "type": "function"
    },
    {
      "inputs": [
        {
          "internalType": "uint256",
          "name": "",
          "type": "uint256"
        }
      ],
      "name": "shareListings",
      "outputs": [
        {
          "internalType": "uint256",
          "name": "listingId",
          "type": "uint256"
        },
        {
          "internalType": "uint256",
          "name": "tokenId",
          "type": "uint256"
        },
        {
          "internalType": "address",
          "name": "seller",
          "type": "address"
        },
        {
          "internalType": "bool",
          "name": "active",
          "type": "bool"
        },
        {
          "internalType": "uint256",
          "name": "numShares",
          "type": "uint256"
        },
        {
          "internalType": "uint256",
          "name": "pricePerShare",
          "type": "uint256"
        }
      ],
      "stateMutability": "view",
      "type": "function"
    },
    {
      "inputs": [
        {
          "internalType": "bytes4",
          "name": "interfaceId",
          "type": "bytes4"
        }
      ],
      "name": "supportsInterface",
      "outputs": [
        {
          "internalType": "bool",
          "name": "",
          "type": "bool"
        }
      ],
      "stateMutability": "view",
      "type": "function"
    },
    {
      "inputs": [],
      "name": "symbol",
      "outputs": [
        {
          "internalType": "string",
          "name": "",
          "type": "string"
        }
      ],
      "stateMutability": "view",
      "type": "function"
    },
    {
      "inputs": [
        {
          "internalType": "uint256",
          "name": "tokenId",
          "type": "uint256"
        }
      ],
      "name": "tokenURI",
      "outputs": [
        {
          "internalType": "string",
          "name": "",
          "type": "string"
        }
      ],
      "stateMutability": "view",
      "type": "function"
    },
    {
      "inputs": [
        {
          "internalType": "address",
          "name": "from",
          "type": "address"
        },
        {
          "internalType": "address",
          "name": "to",
          "type": "address"
        },
        {
          "internalType": "uint256",
          "name": "tokenId",
          "type": "uint256"
        }
      ],
      "name": "transferFrom",
      "outputs": [],
      "stateMutability": "nonpayable",
      "type": "function"
    },
    {
      "inputs": [
        {
          "internalType": "address",
          "name": "newOwner",
          "type": "address"
        }
      ],
      "name": "transferOwnership",
      "outputs": [],
      "stateMutability": "nonpayable",
      "type": "function"
    },
    {
      "inputs": [
        {
          "internalType": "uint256",
          "name": "tokenId",
          "type": "uint256"
        },
        {
          "internalType": "address",
          "name": "to",
          "type": "address"
        },
        {
          "internalType": "uint256",
          "name": "numSharesInEth",
          "type": "uint256"
        }
      ],
      "name": "transferShares",
      "outputs": [],
      "stateMutability": "nonpayable",
      "type": "function"
    },
    {
      "inputs": [],
      "name": "usdcToken",
      "outputs": [
        {
          "internalType": "contract IERC20",
          "name": "",
          "type": "address"
        }
      ],
      "stateMutability": "view",
      "type": "function"
    },
    {
      "inputs": [
        {
          "internalType": "uint256",
          "name": "tokenId",
          "type": "uint256"
        }
      ],
      "name": "verifyAsset",
      "outputs": [],
      "stateMutability": "nonpayable",
      "type": "function"
    },
    {
      "inputs": [
        {
          "internalType": "address",
          "name": "recipient",
          "type": "address"
        },
        {
          "internalType": "uint256",
          "name": "amountInEth",
          "type": "uint256"
        }
      ],
      "name": "withdrawUSDC",
      "outputs": [],
      "stateMutability": "nonpayable",
      "type": "function"
    }
  ],
  "bytecode": "0x60c060405234801561000f575f5ffd5b50604051615af5380380615af583398101604081905261002e91610179565b6040805180820182526012815271283937b82b32b930a0b9b9b2ba2a37b5b2b760711b6020808301919091528251808401909352600383526214159560ea1b9083015290338061009757604051631e4fbdf760e01b81525f600482015260240160405180910390fd5b6100a0816100eb565b5060016100ad8382610242565b5060026100ba8282610242565b50505060016100d36100d061013a60201b60201c565b90565b556001600160a01b039182166080521660a0526102fc565b5f80546001600160a01b038381166001600160a01b0319831681178455604051919092169283917f8be0079c531659141344cd1fd0a4f28419497f9722a3daafe3b4186f6b6457e09190a35050565b7f9b779b17422d0df92223018b32b4d1fa46e071723d6817e2486d003becc55f0090565b80516001600160a01b0381168114610174575f5ffd5b919050565b5f5f6040838503121561018a575f5ffd5b6101938361015e565b91506101a16020840161015e565b90509250929050565b634e487b7160e01b5f52604160045260245ffd5b600181811c908216806101d257607f821691505b6020821081036101f057634e487b7160e01b5f52602260045260245ffd5b50919050565b601f82111561023d57805f5260205f20601f840160051c8101602085101561021b5750805b601f840160051c820191505b8181101561023a575f8155600101610227565b50505b505050565b81516001600160401b0381111561025b5761025b6101aa565b61026f8161026984546101be565b846101f6565b6020601f8211600181146102a1575f831561028a5750848201515b5f19600385901b1c1916600184901b17845561023a565b5f84815260208120601f198516915b828110156102d057878501518255602094850194600190920191016102b0565b50848210156102ed57868401515f19600387901b60f8161c191681555b50505050600190811b01905550565b60805160a0516157456103b05f395f81816104d601528181610dbc0152818161151701528181611560015281816116c2015281816117570152818161244f0152818161279a0152818161297801528181612cfe01528181613137015281816131620152818161319d015281816136af01526141e401525f8181610a3e015281816118f7015281816122eb0152818161294d01528181612ab9015281816131c8015281816136da01526139e601526157455ff3fe608060405234801561000f575f5ffd5b50600436106103bf575f3560e01c8063779efcf1116101f5578063a4bd242a11610114578063d4e9f951116100a9578063e601523011610079578063e601523014610aa6578063e985e9c514610ab9578063eb1bfa8314610acc578063f2fde38b14610ad4575f5ffd5b8063d4e9f95114610a39578063db41c7a714610a60578063db9cc41014610a80578063e39ba81714610a93575f5ffd5b8063c7eaab7f116100e4578063c7eaab7f146109de578063c87b56dd146109f1578063c92530a714610a04578063d2e828da14610a17575f5ffd5b8063a4bd242a1461098e578063b88d4fde146109a1578063be67e72c146109b4578063bf446d00146109d6575f5ffd5b8063855e65b81161018a57806396b413bc1161015a57806396b413bc14610942578063a10ffc0d14610955578063a22cb46514610968578063a2a3ede11461097b575f5ffd5b8063855e65b8146108ef578063892df271146109025780638da5cb5b1461092a57806395d89b411461093a575f5ffd5b80637b4bde3c116101c55780637b4bde3c1461082d5780637bd448ed146108355780637beb988e146108ba57806384b9a6e6146108dc575f5ffd5b8063779efcf11461074a57806377fe713e1461075f5780637956073b1461077f57806379a722881461079f575f5ffd5b8063282d39be116102e157806359fd285c11610276578063704802751161024657806370480275146106b657806370a08231146106c9578063715018a6146106dc578063732dea9f146106e4575f5ffd5b806359fd285c1461064e5780635f89abf3146106615780636352211e146106815780636d47ab7214610694575f5ffd5b806344471fd9116102b157806344471fd91461060057806352c9224c14610613578063548b3a6b1461061b57806354a1a4321461062e575f5ffd5b8063282d39be146105b457806331ff3e87146105c757806342842e0e146105da57806343d7c778146105ed575f5ffd5b806311eac855116103575780631b3163c5116103275780631b3163c51461055757806323b872dd1461055f5780632437cf991461057257806324d7806c14610592575f5ffd5b806311eac855146104d1578063150b7a02146104f857806315488a3c1461052f5780631785f53c14610544575f5ffd5b806307ad3b831161039257806307ad3b8314610436578063081812fc14610480578063095ea7b3146104ab578063110d35b8146104be575f5ffd5b806301a7b3e7146103c357806301ffc9a7146103d857806302d887071461040057806306fdde0314610421575b5f5ffd5b6103d66103d1366004614d80565b610ae7565b005b6103eb6103e6366004614dbf565b610b3c565b60405190151581526020015b60405180910390f35b61041361040e366004614dda565b610b4c565b6040519081526020016103f7565b610429610b63565b6040516103f79190614e1f565b61046b610444366004614e47565b6001600160a01b03165f908152601060209081526040808320546011909252909120549091565b604080519283526020830191909152016103f7565b61049361048e366004614dda565b610bf3565b6040516001600160a01b0390911681526020016103f7565b6103d66104b9366004614e60565b610c1a565b6103d66104cc366004614dda565b610c2e565b6104937f000000000000000000000000000000000000000000000000000000000000000081565b610516610506366004614e9c565b630a85bd0160e11b949350505050565b6040516001600160e01b031990911681526020016103f7565b610537610e34565b6040516103f7919061507a565b6103d6610552366004614e47565b610ef7565b610537610f57565b6103d661056d3660046150dd565b6110bb565b610585610580366004614dda565b611144565b6040516103f79190615117565b6103eb6105a0366004614e47565b600d6020525f908152604090205460ff1681565b6104136105c2366004614e60565b61131d565b6103d66105d5366004614dda565b611350565b6103d66105e83660046150dd565b6115ce565b6103d66105fb366004614dda565b6115ed565b6103d661060e366004614e60565b61163f565b6103d66117ca565b6103d6610629366004614dda565b61183b565b61064161063c366004614dda565b611955565b6040516103f79190615190565b6103d661065c366004614dda565b611bc0565b61067461066f366004614dda565b611ca7565b6040516103f791906151e9565b61049361068f366004614dda565b611cb8565b6103eb6106a2366004614e47565b600b6020525f908152604090205460ff1681565b6103d66106c4366004614e47565b611cc2565b6104136106d7366004614e47565b611d26565b6103d6611d6b565b6107216106f2366004614dda565b600c6020525f90815260409020805460018201546002830154600390930154919290916001600160a01b031684565b604080519485526020850193909352918301526001600160a01b031660608201526080016103f7565b610752611d7e565b6040516103f79190615235565b61077261076d366004614dda565b611eb7565b6040516103f791906152ba565b61079261078d366004614dda565b611f20565b6040516103f791906152cc565b6107f06107ad366004614dda565b600e6020525f908152604090208054600182015460028301546003840154600490940154929391926001600160a01b03821692600160a01b90920460ff16919086565b6040805196875260208701959095526001600160a01b039093169385019390935215156060840152608083019190915260a082015260c0016103f7565b610752611fc1565b610882610843366004614dda565b600a6020525f90815260409020805460018201546002909201549091906001600160a01b0381169060ff600160a01b8204811691600160a81b90041685565b6040805195865260208601949094526001600160a01b039092169284019290925290151560608301521515608082015260a0016103f7565b6103eb6108c8366004614dda565b5f9081526014602052604090205460ff1690565b6103d66108ea3660046152da565b61216a565b6103d66108fd366004614dda565b612368565b610493610910366004614dda565b5f908152601360205260409020546001600160a01b031690565b5f546001600160a01b0316610493565b6104296123a1565b6103d66109503660046152fc565b6123b0565b6103d66109633660046152fc565b612817565b6103d661097636600461531c565b6129d5565b6103d6610989366004615344565b6129e0565b6103d661099c366004614dda565b612bc8565b6103d66109af366004614e9c565b612d6f565b6103eb6109c2366004614dda565b5f9081526012602052604090205460ff1690565b610537612d87565b6105376109ec366004614e47565b612e7b565b6104296109ff366004614dda565b612f82565b6103d6610a12366004614dda565b612f8d565b6103eb610a25366004614dda565b600f6020525f908152604090205460ff1681565b6104937f000000000000000000000000000000000000000000000000000000000000000081565b610a73610a6e366004614e47565b61325e565b6040516103f7919061536d565b6103d6610a8e3660046153ca565b613443565b6103d6610aa13660046152fc565b613581565b6103d6610ab43660046152fc565b6137eb565b6103eb610ac736600461543a565b613abe565b610585613aeb565b6103d6610ae2366004614e47565b613c67565b335f908152600d602052604090205460ff16610b1d57604051630bd4212160e11b81523360048201526024015b60405180910390fd5b5f918252600f6020526040909120805460ff1916911515919091179055565b5f610b4682613ca1565b92915050565b5f81815260176020526040812054610b4690613cc5565b606060018054610b7290615462565b80601f0160208091040260200160405190810160405280929190818152602001828054610b9e90615462565b8015610be95780601f10610bc057610100808354040283529160200191610be9565b820191905f5260205f20905b815481529060010190602001808311610bcc57829003601f168201915b5050505050905090565b5f610bfd82613cd3565b505f828152600560205260409020546001600160a01b0316610b46565b610c2a828233613d0b565b613d0b565b5050565b5f818152600a6020526040902060028101546001600160a01b0381169060ff600160a01b8204811691600160a81b9004168115610c7e57604051630e7929d360e21b815260040160405180910390fd5b336001600160a01b03841603610ca75760405163239700bf60e11b815260040160405180910390fd5b5f8581526012602052604090205460ff1615610cd65760405163c94dede360e01b815260040160405180910390fd5b80610cf457604051636b8c645960e11b815260040160405180910390fd5b826001600160a01b0316610d0786613d18565b6001600160a01b031614610d2e57604051633dc3840960e01b815260040160405180910390fd5b30610d3886613d22565b6001600160a01b031614158015610d565750610d548330613d2c565b155b15610d7457604051630711778560e51b815260040160405180910390fd5b6001808501545f878152601260209081526040808320805460ff1916909517909455601390529190912080546001600160a01b03191633908117909155610def903083610dde7f000000000000000000000000000000000000000000000000000000000000000090565b6001600160a01b0316929190613d37565b33867f6011b33359ac565ce9d08448bbbe206f571e89b9b656defae19749f7b834b208610e1b84613cc5565b60405190815260200160405180910390a3505050505050565b6008546060905f816001600160401b03811115610e5357610e53614e88565b604051908082528060200260200182016040528015610e8c57816020015b610e79614cbf565b815260200190600190039081610e715790505b5090505f60015b838111610eee575f818152600a60205260409020600201546001600160a01b031615610ee657610ec281613d6d565b838381518110610ed457610ed461549a565b60200260200101819052508160010191505b600101610e93565b50815292915050565b610eff613ecf565b6001600160a01b0381165f908152600d602052604090205460ff16610f37576040516333faae9f60e11b815260040160405180910390fd5b6001600160a01b03165f908152600d60205260409020805460ff19169055565b6008546060905f60015b828111610fc9575f818152600a6020526040902060028101546001600160a01b031615801590610f9d57506002810154600160a01b900460ff16155b8015610fb457506002810154600160a81b900460ff165b15610fc0578260010192505b50600101610f61565b505f816001600160401b03811115610fe357610fe3614e88565b60405190808252806020026020018201604052801561101c57816020015b611009614cbf565b8152602001906001900390816110015790505b5090505f60015b8481116110b1575f818152600a6020526040902060028101546001600160a01b03161580159061105f57506002810154600160a01b900460ff16155b801561107657506002810154600160a81b900460ff165b156110a85761108482613d6d565b8484815181106110965761109661549a565b60200260200101819052508260010192505b50600101611023565b5090949350505050565b6001600160a01b0382166110e457604051633250574960e11b81525f6004820152602401610b14565b5f6110f0838333613efb565b9050836001600160a01b0316816001600160a01b03161461113e576040516364283d7b60e01b81526001600160a01b0380861660048301526024820184905282166044820152606401610b14565b50505050565b5f8181526018602052604081208054606092805b828110156111b057600e5f8583815481106111755761117561549a565b905f5260205f20015481526020019081526020015f2060020160149054906101000a900460ff16156111a8578160010191505b600101611158565b505f816001600160401b038111156111ca576111ca614e88565b60405190808252806020026020018201604052801561120357816020015b6111f0614d31565b8152602001906001900390816111e85790505b5090505f5f5b84811015611311575f8682815481106112245761122461549a565b5f918252602080832090910154808352600e90915260409091206002015490915060ff600160a01b9091041615611308575f818152600e6020908152604091829020825160c0810184528154815260018201549281019290925260028101546001600160a01b03811693830193909352600160a01b90920460ff161515606082015260038201546080820181905260049092015460a0820152906112c790613fed565b608082015260a08101516112da90613cc5565b60a0820152845181908690869081106112f5576112f561549a565b6020026020010181905250836001019350505b50600101611209565b50909695505050505050565b6001600160a01b0382165f90815260156020908152604080832084845290915281205461134990613fed565b9392505050565b611358614000565b5f818152601360205260409020546001600160a01b0316331461138e5760405163239700bf60e11b815260040160405180910390fd5b5f818152600a602090815260408083206012909252909120546002820154600183015460ff92831692600160a01b8304811692600160a81b8104909116916001600160a01b0390911690846113f657604051636406636560e01b815260040160405180910390fd5b831561141557604051630e7929d360e21b815260040160405180910390fd5b8261143357604051636b8c645960e11b815260040160405180910390fd5b816001600160a01b031661144688613d18565b6001600160a01b03161461146d57604051633dc3840960e01b815260040160405180910390fd5b3061147788613d22565b6001600160a01b03161415801561149557506114938230613d2c565b155b156114b357604051630711778560e51b815260040160405180910390fd5b5f60646114c16003846154c2565b6114cb91906154d9565b90505f6114d882846154f8565b60028901805460ff60a01b1916600160a01b1790556001600160a01b0385165f90815260106020526040902080546001019055905061154984826115397f000000000000000000000000000000000000000000000000000000000000000090565b6001600160a01b0316919061402e565b61158461155d5f546001600160a01b031690565b837f0000000000000000000000000000000000000000000000000000000000000000611539565b61158f84338b614063565b60405133908a907f69568b9061d8698382f40d46ce2465989a5b2576dbdaccedc1184fe5aaaf6efc905f90a350505050505050506115cb61406e565b50565b6115e883838360405180602001604052805f815250612d6f565b505050565b6115f5614000565b5f818152600a60205260409020600201546001600160a01b0316331461162e57604051633dc3840960e01b815260040160405180910390fd5b61163781614094565b6115cb61406e565b611647613ecf565b61164f614000565b6001600160a01b03821661167657604051634e46966960e11b815260040160405180910390fd5b805f036116965760405163162908e360e11b815260040160405180910390fd5b5f6116a08261428d565b6040516370a0823160e01b815230600482015290915081906001600160a01b037f000000000000000000000000000000000000000000000000000000000000000016906370a0823190602401602060405180830381865afa158015611707573d5f5f3e3d5ffd5b505050506040513d601f19601f8201168201806040525081019061172b919061550b565b101561174a57604051630c112f1d60e21b815260040160405180910390fd5b61177e6001600160a01b037f000000000000000000000000000000000000000000000000000000000000000016848361402e565b826001600160a01b03167f2aa7fb97600ea702b454359fc3d02ae9fa48367e7155505d38cee896e5b5aae7836040516117b991815260200190565b60405180910390a250610c2a61406e565b335f908152600b602052604090205460ff16156117fa576040516301abfbd360e61b815260040160405180910390fd5b335f818152600b6020526040808220805460ff19166001179055517f4d97d287a8f631378031b05cb24c876085261ddaa7b8f584477370ef473fbb3d9190a2565b611843614000565b5f818152600e60205260408120805490910361187257604051631869380b60e21b815260040160405180910390fd5b60028101546001600160a01b0316331461189f5760405163af842ccd60e01b815260040160405180910390fd5b6002810154600160a01b900460ff166118cb5760405163b36468cb60e01b815260040160405180910390fd5b6003810154600282018054600184015460ff60a01b1982169092556001600160a01b03169061191b82847f0000000000000000000000000000000000000000000000000000000000000000611539565b6040513390829087907fbd16cb665635215f75797cfff11802844a332c92869a8c20be16baf75e8c4949905f90a4505050506115cb61406e565b5f818152600c602052604090206003810154606091906001600160a01b031661199157604051637c79e6d760e01b815260040160405180910390fd5b5f8381526016602090815260408083208054600a90935290832060020154909290600160a01b900460ff16156119fb5760028401545f878152600a60205260409020600101546119ea90670de0b6b3a7640000906154c2565b6119f491906154d9565b9050611a64565b5f5f8311611a09575f611a4e565b60155f855f81548110611a1e57611a1e61549a565b5f9182526020808320909101546001600160a01b0316835282810193909352604091820181208a82529092529020545b9050808560010154611a609190615522565b9150505b5f826001600160401b03811115611a7d57611a7d614e88565b604051908082528060200260200182016040528015611ad857816020015b611ac560405180606001604052805f6001600160a01b031681526020015f81526020015f81525090565b815260200190600190039081611a9b5790505b5090505f5b83811015611bb5575f858281548110611af857611af861549a565b5f9182526020808320909101546001600160a01b03168083526015825260408084208d8552909252908220549092509085611b33575f611b5c565b85670de0b6b3a7640000611b486064856154c2565b611b5291906154c2565b611b5c91906154d9565b90506040518060600160405280846001600160a01b03168152602001611b8184613fed565b815260200182815250858581518110611b9c57611b9c61549a565b6020026020010181905250836001019350505050611add565b509695505050505050565b335f908152600d602052604090205460ff16611bf157604051630bd4212160e11b8152336004820152602401610b14565b5f818152600a6020526040902060028101546001600160a01b0316611c29576040516367fa94e760e01b815260040160405180910390fd5b6002810154600160a81b900460ff1615611c5657604051634dd7287b60e11b815260040160405180910390fd5b60028101805460ff60a81b198116600160a81b179091556040516001600160a01b039091169083907f5bd81a4d257100f5fe7df72a9e528a7aaf33871f8258739a331d2627a83f0aac905f90a35050565b611caf614cbf565b610b4682613d6d565b5f610b4682613cd3565b611cca613ecf565b6001600160a01b0381165f908152600d602052604090205460ff1615611d03576040516308a07bb960e41b815260040160405180910390fd5b6001600160a01b03165f908152600d60205260409020805460ff19166001179055565b5f6001600160a01b038216611d50576040516322718ad960e21b81525f6004820152602401610b14565b506001600160a01b03165f9081526004602052604090205490565b611d73613ecf565b611d7c5f61429b565b565b6008546060905f816001600160401b03811115611d9d57611d9d614e88565b604051908082528060200260200182016040528015611df457816020015b6040805160a0810182525f808252602080830182905292820181905260608201819052608082015282525f19909201910181611dbb5790505b5090505f60015b838111610eee575f818152600a6020526040902060028101546001600160a01b031615611eae576040805160a0810182528254815260018301546020820181905260028401546001600160a01b0381169383019390935260ff600160a01b8404811615156060840152600160a81b9093049092161515608082015290611e8090613cc5565b602082015284518190869086908110611e9b57611e9b61549a565b6020026020010181905250836001019350505b50600101611dfb565b5f81815260166020908152604091829020805483518184028101840190945280845260609392830182828015611f1457602002820191905f5260205f20905b81546001600160a01b03168152600190910190602001808311611ef6575b50505050509050919050565b6040805160a0810182525f808252602082018190529181018290526060810182905260808101919091525f828152600a6020908152604091829020825160a0810184528154815260018201549281018390526002909101546001600160a01b0381169382019390935260ff600160a01b8404811615156060830152600160a81b90930490921615156080830152611fb690613cc5565b602082015292915050565b6008546060905f60015b82811161201c575f818152600a602052604090206002810154600160a01b900460ff16158015612007575060028101546001600160a01b031615155b15612013578260010192505b50600101611fcb565b505f816001600160401b0381111561203657612036614e88565b60405190808252806020026020018201604052801561208d57816020015b6040805160a0810182525f808252602080830182905292820181905260608201819052608082015282525f199092019101816120545790505b5090505f60015b8481116110b1575f818152600a602052604090206002810154600160a01b900460ff161580156120d0575060028101546001600160a01b031615155b15612161576040805160a0810182528254815260018301546020820181905260028401546001600160a01b0381169383019390935260ff600160a01b8404811615156060840152600160a81b909304909216151560808201529061213390613cc5565b60208201528451819086908690811061214e5761214e61549a565b6020026020010181905250836001019350505b50600101612094565b612172614000565b6001600160a01b038216158061219057506001600160a01b03821633145b156121ae57604051634e46966960e11b815260040160405180910390fd5b805f036121ce5760405163162908e360e11b815260040160405180910390fd5b5f838152600c60205260409020600301546001600160a01b031661220557604051637c79e6d760e01b815260040160405180910390fd5b5f61220f826142ea565b335f9081526015602090815260408083208884529091529020549091508181101561224d576040516307aed2bf60e01b815260040160405180910390fd5b61225782826154f8565b335f9081526015602081815260408084208a85528252808420949094556001600160a01b0388168352908152828220888352905290812080548015928592916122a1908490615522565b909155505080156122e3575f8681526016602090815260408220805460018101825590835291200180546001600160a01b0319166001600160a01b0387161790555b61230f3386857f0000000000000000000000000000000000000000000000000000000000000000610dde565b846001600160a01b0316336001600160a01b0316877f78dc4ab325d618a4100f0b44da2f25725cd94b780060f6b9e87065e9c0b12ebd8760405161235591815260200190565b60405180910390a45050506115e861406e565b335f908152600d602052604090205460ff1661239957604051630bd4212160e11b8152336004820152602401610b14565b61162e614000565b606060028054610b7290615462565b335f908152600d602052604090205460ff166123e157604051630bd4212160e11b8152336004820152602401610b14565b6123e9614000565b5f828152600c60205260409020600301546001600160a01b031661242057604051637c79e6d760e01b815260040160405180910390fd5b805f036124405760405163162908e360e11b815260040160405180910390fd5b5f61244a8261428d565b9050807f00000000000000000000000000000000000000000000000000000000000000006040516370a0823160e01b81523060048201526001600160a01b0391909116906370a0823190602401602060405180830381865afa1580156124b2573d5f5f3e3d5ffd5b505050506040513d601f19601f820116820180604052508101906124d6919061550b565b10156124f557604051630c112f1d60e21b815260040160405180910390fd5b5f838152600c60209081526040808320600a909252822060020154909190600160a01b900460ff161561255c5760028201545f868152600a602052604090206001015461254b90670de0b6b3a7640000906154c2565b61255591906154d9565b90506125e3565b5f85815260166020526040812090805b82548110156125cd5760155f84838154811061258a5761258a61549a565b5f9182526020808320909101546001600160a01b0316835282810193909352604091820181208b82529092529020546125c39083615522565b915060010161256c565b508084600101546125de9190615522565b925050505b805f036126035760405163767f158960e11b815260040160405180910390fd5b5f85815260166020526040812080549091816001600160401b0381111561262c5761262c614e88565b604051908082528060200260200182016040528015612655578160200160208202803683370190505b5090505f826001600160401b0381111561267157612671614e88565b60405190808252806020026020018201604052801561269a578160200160208202803683370190505b5090505f5f5b848110156127ca575f8682815481106126bb576126bb61549a565b905f5260205f20015f9054906101000a90046001600160a01b031690505f60155f836001600160a01b03166001600160a01b031681526020019081526020015f205f8e81526020019081526020015f205490505f8111156127c0575f89612722838e6154c2565b61272c91906154d9565b9050828785815181106127415761274161549a565b60200260200101906001600160a01b031690816001600160a01b03168152505061276a81613cc5565b86858151811061277c5761277c61549a565b60209081029190910101526127918186615522565b94506127be83827f0000000000000000000000000000000000000000000000000000000000000000611539565b505b50506001016126a0565b50897fc387054d0a1edc45d05a6688bba0ac9b28896cab5bf6987d3c841f8bed9179858a85856040516127ff93929190615535565b60405180910390a25050505050505050610c2a61406e565b61281f614000565b5f828152600f602052604090205460ff1661284d5760405163271c87d960e01b815260040160405180910390fd5b335f90815260156020908152604080832085845290915281205490819003612888576040516334b5d06d60e21b815260040160405180910390fd5b5f612892836142ea565b9050808210156128b5576040516307aed2bf60e01b815260040160405180910390fd5b5f848152600c6020526040812060028101549091670de0b6b3a76400006128dc83866154c2565b6128e691906154d9565b905083836001015f8282546128fb9190615522565b9091555061290b905084866154f8565b335f9081526015602090815260408083208b845282528083209390935560179052908120805483929061293f9084906154f8565b9091555061297190503330867f0000000000000000000000000000000000000000000000000000000000000000610dde565b61299c33827f0000000000000000000000000000000000000000000000000000000000000000611539565b604051339088907f79d98c1fcef4b855b9fa7b4b973b716a65c33d37d39afcd4742548dfe8c9808e905f90a35050505050610c2a61406e565b610c2a3383836142fd565b6129e8614000565b815f03612a085760405163162908e360e11b815260040160405180910390fd5b805f03612a275760405162bfc92160e01b815260040160405180910390fd5b5f838152600c60205260409020600301546001600160a01b0316612a5e57604051637c79e6d760e01b815260040160405180910390fd5b5f612a68836142ea565b90505f612a748361428d565b335f908152601560209081526040808320898452909152902054909150821115612ab1576040516307aed2bf60e01b815260040160405180910390fd5b612add3330847f0000000000000000000000000000000000000000000000000000000000000000610dde565b600980546001908101918290556040805160c08101825283815260208082018a81523383850181815260608501878152608086018b815260a087018b81525f8b8152600e8852898120985189559551888b0155925160028801805493511515600160a01b026001600160a81b03199094166001600160a01b039092169190911792909217909155516003860155516004909401939093558a815260188252838120805495860181558152819020909301849055815188815292830187905291889184917fc8453dbf314ce17741a0eb35b57ccf4daa06a17768d8e3cf02669740dec46fe19101612355565b612bd0614000565b5f818152601360205260409020546001600160a01b03163314612c065760405163239700bf60e11b815260040160405180910390fd5b5f818152600a6020908152604080832060129092529091205460ff16612c3f57604051636406636560e01b815260040160405180910390fd5b6002810154600160a01b900460ff1615612c6c57604051630e7929d360e21b815260040160405180910390fd5b600180820154600283015490916001600160a01b03909116905f90606490612c9490856154c2565b612c9e91906154d9565b90505f612cab82856154f8565b5f878152601260209081526040808320805460ff1990811690915560148352818420805490911660019081179091556001600160a01b03881684526011909252909120805490910190559050612d2233827f0000000000000000000000000000000000000000000000000000000000000000611539565b612d3661155d5f546001600160a01b031690565b604051339087907f79d98c1fcef4b855b9fa7b4b973b716a65c33d37d39afcd4742548dfe8c9808e905f90a350505050506115cb61406e565b612d7a8484846110bb565b61113e33858585856143c4565b6008546060905f60015b828111612dc6575f818152600c60205260409020600301546001600160a01b031615612dbe578160010191505b600101612d91565b505f816001600160401b03811115612de057612de0614e88565b604051908082528060200260200182016040528015612e1957816020015b612e06614cbf565b815260200190600190039081612dfe5790505b5090505f60015b8481116110b1575f818152600c60205260409020600301546001600160a01b031615612e7357612e4f81613d6d565b838381518110612e6157612e6161549a565b60200260200101819052508160010191505b600101612e20565b6008546060905f60015b828111612ebe575f818152600a60205260409020600201546001600160a01b03808716911603612eb6578160010191505b600101612e85565b505f816001600160401b03811115612ed857612ed8614e88565b604051908082528060200260200182016040528015612f1157816020015b612efe614cbf565b815260200190600190039081612ef65790505b5090505f60015b848111612f77575f818152600a60205260409020600201546001600160a01b03808916911603612f6f57612f4b81613d6d565b838381518110612f5d57612f5d61549a565b60200260200101819052508160010191505b600101612f18565b509095945050505050565b6060610b46826144ec565b612f95614000565b5f818152600e60205260408120805460028201546003830154600484015460018501549495939460ff600160a01b850416946001600160a01b0390941693869003612ff357604051631869380b60e21b815260040160405180910390fd5b846130115760405163b36468cb60e01b815260040160405180910390fd5b336001600160a01b0385160361303a57604051632ed6d9bf60e01b815260040160405180910390fd5b5f670de0b6b3a764000061304e84866154c2565b61305891906154d9565b90505f60646130686002846154c2565b61307291906154d9565b90505f61307f82846154f8565b60028b01805460ff60a01b191690556001600160a01b0388165f9081526015602090815260408083208884529091528120805492935088929091906130c59084906154f8565b9091555050335f908152601560209081526040808320878452909152812080548015928992916130f6908490615522565b9091555050801561312f575f8581526016602090815260408220805460018101825590835291200180546001600160a01b031916331790555b61315b3330867f0000000000000000000000000000000000000000000000000000000000000000610dde565b61318688837f0000000000000000000000000000000000000000000000000000000000000000611539565b6131c161319a5f546001600160a01b031690565b847f0000000000000000000000000000000000000000000000000000000000000000611539565b6131ec33887f0000000000000000000000000000000000000000000000000000000000000000611539565b33858d7f568978fa6cdc4c0b38f2f664aefe9c11e38bde0d99996a5ae15ce93831906b5a8b61321a8c613fed565b6132238a613cc5565b604080516001600160a01b03909416845260208401929092529082015260600160405180910390a450505050505050505050506115cb61406e565b6008546060905f60015b8281116132a6576001600160a01b0385165f9081526015602090815260408083208484529091529020541561329e578160010191505b600101613268565b505f816001600160401b038111156132c0576132c0614e88565b60405190808252806020026020018201604052801561331857816020015b61330560405180608001604052805f81526020015f81526020015f81526020015f81525090565b8152602001906001900390816132de5790505b5090505f60015b848111612f77576001600160a01b0387165f908152601560209081526040808320848452909152902054801561343a575f828152600c602090815260408083206002810154600a90935290832060010154909290829061338890670de0b6b3a7640000906154c2565b61339291906154d9565b90505f81670de0b6b3a76400006133aa8760646154c2565b6133b491906154c2565b6133be91906154d9565b90505f670de0b6b3a76400006133d485886154c2565b6133de91906154d9565b905060405180608001604052808881526020016133fa88613fed565b815260200183815260200161340e83613cc5565b8152508989815181106134235761342361549a565b602002602001018190525087600101975050505050505b5060010161331f565b335f908152600b602052604090205460ff1661347257604051636605cccd60e01b815260040160405180910390fd5b805f036134915760405162bfc92160e01b815260040160405180910390fd5b60088054600101908190555f6134a68361428d565b90506134b43383878761456d565b6040805160a0810182528381526020808201848152338385018181525f60608601818152608087018281528a8352600a87528883209751885594516001880155915160029096018054925194511515600160a81b0260ff60a81b19951515600160a01b026001600160a81b03199094166001600160a01b0390981697909717929092179390931694909417909355835187815291820152909184917f01aabc63c609dc7d5b843b6d992427acf5dfe956c372736395968e6a573f94bc910160405180910390a35050505050565b613589614000565b805f036135a95760405163162908e360e11b815260040160405180910390fd5b5f828152600c602052604081206002810154600182015491929091906135ce856142ea565b9050808210156135f1576040516378dbf0af60e11b815260040160405180910390fd5b5f670de0b6b3a764000061360585846154c2565b61360f91906154d9565b905061361b82846154f8565b60018601555f878152601760205260408120805483929061363d908490615522565b9091555050335f9081526015602090815260408083208a84529091528120805480159285929161366e908490615522565b909155505080156136a7575f8881526016602090815260408220805460018101825590835291200180546001600160a01b031916331790555b6136d33330847f0000000000000000000000000000000000000000000000000000000000000000610dde565b6136fe33847f0000000000000000000000000000000000000000000000000000000000000000611539565b5f888152600a6020526040812060010154869061372490670de0b6b3a7640000906154c2565b61372e91906154d9565b905086600101545f14801561375b5750335f9081526015602090815260408083208c845290915290205481145b15613797575f898152600a60205260409020600201805460ff60a01b198116600160a01b17909155613797906001600160a01b0316338b614063565b33897fa998a0fce7a03718cfd793e37a121caa2b2f36541ea0a73875465f5071393c6b8a6137c487613cc5565b6040805192835260208301919091520160405180910390a350505050505050610c2a61406e565b335f908152600d602052604090205460ff1661381c57604051630bd4212160e11b8152336004820152602401610b14565b5f828152600a60205260409020600281015460018201546001600160a01b0382169160ff600160a01b8204811692600160a81b909204169083613872576040516367fa94e760e01b815260040160405180910390fd5b821561389157604051630e7929d360e21b815260040160405180910390fd5b816138af57604051636b8c645960e11b815260040160405180910390fd5b836001600160a01b03166138c288613d18565b6001600160a01b0316146138e957604051633dc3840960e01b815260040160405180910390fd5b306138f388613d22565b6001600160a01b031614158015613911575061390f8430613d2c565b155b1561392f57604051630711778560e51b815260040160405180910390fd5b5f613939876142ea565b90505f8161394f670de0b6b3a7640000856154c2565b61395991906154d9565b905060405180608001604052808a8152602001838152602001828152602001876001600160a01b0316815250600c5f8b81526020019081526020015f205f820151815f015560208201518160010155604082015181600201556060820151816003015f6101000a8154816001600160a01b0302191690836001600160a01b03160217905550905050613a087f000000000000000000000000000000000000000000000000000000000000000090565b6040516340c10f1960e01b8152306004820152602481018490526001600160a01b0391909116906340c10f19906044015f604051808303815f87803b158015613a4f575f5ffd5b505af1158015613a61573d5f5f3e3d5ffd5b50505050856001600160a01b0316897f9eb639452d96fe0bffd557d21ff0416c86b94a01c388f5cbc024fbea8a1359058a613a9b85613cc5565b6040805192835260208301919091520160405180910390a3505050505050505050565b6001600160a01b039182165f90815260066020908152604080832093909416825291909152205460ff1690565b6009546060905f60015b828111613b2b575f818152600e6020526040902060020154600160a01b900460ff1615613b23578160010191505b600101613af5565b505f816001600160401b03811115613b4557613b45614e88565b604051908082528060200260200182016040528015613b7e57816020015b613b6b614d31565b815260200190600190039081613b635790505b5090505f60015b8481116110b1575f818152600e6020526040902060020154600160a01b900460ff1615613c5f575f818152600e6020908152604091829020825160c0810184528154815260018201549281019290925260028101546001600160a01b03811693830193909352600160a01b90920460ff161515606082015260038201546080820181905260049092015460a082015290613c1e90613fed565b608082015260a0810151613c3190613cc5565b60a082015283518190859085908110613c4c57613c4c61549a565b6020026020010181905250826001019250505b600101613b85565b613c6f613ecf565b6001600160a01b038116613c9857604051631e4fbdf760e01b81525f6004820152602401610b14565b6115cb8161429b565b5f6001600160e01b03198216632483248360e11b1480610b465750610b46826145c0565b5f610b46620f4240836154d9565b5f818152600360205260408120546001600160a01b031680610b4657604051637e27328960e01b815260048101849052602401610b14565b6115e8838383600161460f565b5f610b4682611cb8565b5f610b4682610bf3565b5f6113498383613abe565b613d45848484846001614713565b61113e57604051635274afe760e01b81526001600160a01b0385166004820152602401610b14565b613d75614cbf565b5f828152600a60209081526040808320600c9092529091206003810154600183015460028301548686526001600160a01b03909216151591613db682613cc5565b60208088019190915260028601546001600160a01b038082166040808b019190915260ff600160a01b84048116151560608c0152600160a81b9093048316151560808b01525f8b815260128552818120548416151560a08c01528b81526014855281812054909316151560c08b01528a83526013909352919020541660e0870152613e4087612f82565b61010087015282158015610120880152613ec5575f81613e68670de0b6b3a7640000856154c2565b613e7291906154d9565b9050613e7d81613fed565b6101408801526001850154613e9190613fed565b610160880152613ea082613cc5565b6101808801525f88815260176020526040902054613ebd90613cc5565b6101a0880152505b5050505050919050565b5f546001600160a01b03163314611d7c5760405163118cdaa760e01b8152336004820152602401610b14565b5f828152600360205260408120546001600160a01b0390811690831615613f2757613f27818486614780565b6001600160a01b03811615613f6157613f425f855f5f61460f565b6001600160a01b0381165f90815260046020526040902080545f190190555b6001600160a01b03851615613f8f576001600160a01b0385165f908152600460205260409020805460010190555b5f8481526003602052604080822080546001600160a01b0319166001600160a01b0389811691821790925591518793918516917fddf252ad1be2c89b69c2b068fc378daa952ba7f163c4a11628f55a4df523b3ef91a4949350505050565b5f610b46670de0b6b3a7640000836154d9565b6140086147e4565b60027f9b779b17422d0df92223018b32b4d1fa46e071723d6817e2486d003becc55f0055565b61403b8383836001614826565b6115e857604051635274afe760e01b81526001600160a01b0384166004820152602401610b14565b6115e8838383614888565b60017f9b779b17422d0df92223018b32b4d1fa46e071723d6817e2486d003becc55f0055565b5f818152600a6020526040902060028101546001600160a01b03166140cc576040516367fa94e760e01b815260040160405180910390fd5b6002810154600160a01b900460ff16156140f957604051630e7929d360e21b815260040160405180910390fd5b5f828152600c602052604090206001015415158061412357505f8281526016602052604090205415155b1561414157604051633aab055d60e11b815260040160405180910390fd5b5f828152601260209081526040808320546013909252909120546001830154600284015460ff909316926001600160a01b0392831692168315614208575f868152601260209081526040808320805460ff199081169091556013835281842080546001600160a01b031916905560148352818420805490911660019081179091556001600160a01b038516845260119092529091208054909101905561420883837f0000000000000000000000000000000000000000000000000000000000000000611539565b3061421287613d22565b6001600160a01b03160361422a5761422a5f87614935565b5f868152600a60205260408082208281556001810183905560020180546001600160b01b0319169055516001600160a01b0383169188917fb0c47e30b179e345216714c02c87ae332febaf891cfa78b0a65f43999fa6ba3d9190a3505050505050565b5f610b46620f4240836154c2565b5f80546001600160a01b038381166001600160a01b0319831681178455604051919092169283917f8be0079c531659141344cd1fd0a4f28419497f9722a3daafe3b4186f6b6457e09190a35050565b5f610b46670de0b6b3a7640000836154c2565b6001600160a01b0383166143265760405163a9fbf51f60e01b81525f6004820152602401610b14565b6001600160a01b03821661435857604051630b61174360e31b81526001600160a01b0383166004820152602401610b14565b6001600160a01b038381165f81815260066020908152604080832094871680845294825291829020805460ff191686151590811790915591519182527f17307eab39ab6107e8899845ad3d59bd9653f200f220920489ca2b5937696c31910160405180910390a3505050565b6001600160a01b0383163b156144e557604051630a85bd0160e11b81526001600160a01b0384169063150b7a029061440690889088908790879060040161558f565b6020604051808303815f875af1925050508015614440575060408051601f3d908101601f1916820190925261443d918101906155cb565b60015b6144a7573d80801561446d576040519150601f19603f3d011682016040523d82523d5f602084013e614472565b606091505b5080515f0361449f57604051633250574960e11b81526001600160a01b0385166004820152602401610b14565b805160208201fd5b6001600160e01b03198116630a85bd0160e11b146144e357604051633250574960e11b81526001600160a01b0385166004820152602401610b14565b505b5050505050565b60606144f782613cd3565b505f61450d60408051602081019091525f815290565b90505f61451984614943565b905081515f0361452a579392505050565b80511561455c5781816040516020016145449291906155fd565b60405160208183030381529060405292505050919050565b614565846149d8565b949350505050565b6145778484614a48565b6145b68383838080601f0160208091040260200160405190810160405280939291908181526020018383808284375f92019190915250614aa992505050565b61113e3084610c1a565b5f6001600160e01b031982166380ac58cd60e01b14806145f057506001600160e01b03198216635b5e139f60e01b145b80610b4657506301ffc9a760e01b6001600160e01b0319831614610b46565b808061462357506001600160a01b03821615155b156146e4575f61463284613cd3565b90506001600160a01b0383161580159061465e5750826001600160a01b0316816001600160a01b031614155b8015614671575061466f8184613abe565b155b1561469a5760405163a9fbf51f60e01b81526001600160a01b0384166004820152602401610b14565b81156146e25783856001600160a01b0316826001600160a01b03167f8c5be1e5ebec7d5bd14f71427d1e84f3dd0314c0f7b2291e5b200ac8c7c3b92560405160405180910390a45b505b50505f90815260056020526040902080546001600160a01b0319166001600160a01b0392909216919091179055565b6040516323b872dd60e01b5f8181526001600160a01b038781166004528616602452604485905291602083606481808c5af1925060015f5114831661476f578383151615614763573d5f823e3d81fd5b5f883b113d1516831692505b604052505f60605295945050505050565b61478b838383614af8565b6115e8576001600160a01b0383166147b957604051637e27328960e01b815260048101829052602401610b14565b60405163177e802f60e01b81526001600160a01b038316600482015260248101829052604401610b14565b7f9b779b17422d0df92223018b32b4d1fa46e071723d6817e2486d003becc55f0054600203611d7c57604051633ee5aeb560e01b815260040160405180910390fd5b60405163a9059cbb60e01b5f8181526001600160a01b038616600452602485905291602083604481808b5af1925060015f5114831661487c578383151615614870573d5f823e3d81fd5b5f873b113d1516831692505b60405250949350505050565b6001600160a01b0382166148b157604051633250574960e11b81525f6004820152602401610b14565b5f6148bd83835f613efb565b90506001600160a01b0381166148e957604051637e27328960e01b815260048101839052602401610b14565b836001600160a01b0316816001600160a01b03161461113e576040516364283d7b60e01b81526001600160a01b0380861660048301526024820184905282166044820152606401610b14565b610c2a8282610c2584613d18565b5f81815260076020526040902080546060919061495f90615462565b80601f016020809104026020016040519081016040528092919081815260200182805461498b90615462565b8015611f145780601f106149ad57610100808354040283529160200191611f14565b820191905f5260205f20905b8154815290600101906020018083116149b95750939695505050505050565b60606149e382613cd3565b505f6149f960408051602081019091525f815290565b90505f815111614a175760405180602001604052805f815250611349565b80614a2184614b59565b604051602001614a329291906155fd565b6040516020818303038152906040529392505050565b6001600160a01b038216614a7157604051633250574960e11b81525f6004820152602401610b14565b5f614a7d83835f613efb565b90506001600160a01b038116156115e8576040516339e3563760e11b81525f6004820152602401610b14565b5f828152600760205260409020614ac08282615655565b506040518281527ff8e1a15aba9398e019f0b49df1a4fde98ee17ae345cb5f6b5e2c27f5033e8ce79060200160405180910390a15050565b5f6001600160a01b038316158015906145655750826001600160a01b0316846001600160a01b03161480614b315750614b318484613abe565b806145655750505f908152600560205260409020546001600160a01b03908116911614919050565b60605f614b6583614be8565b60010190505f816001600160401b03811115614b8357614b83614e88565b6040519080825280601f01601f191660200182016040528015614bad576020820181803683370190505b5090508181016020015b5f19016f181899199a1a9b1b9c1cb0b131b232b360811b600a86061a8153600a8504945084614bb757509392505050565b5f8072184f03e93ff9f4daa797ed6e38ed64bf6a1f0160401b8310614c265772184f03e93ff9f4daa797ed6e38ed64bf6a1f0160401b830492506040015b6d04ee2d6d415b85acef81000000008310614c52576d04ee2d6d415b85acef8100000000830492506020015b662386f26fc100008310614c7057662386f26fc10000830492506010015b6305f5e1008310614c88576305f5e100830492506008015b6127108310614c9c57612710830492506004015b60648310614cae576064830492506002015b600a8310610b465760010192915050565b604080516101c0810182525f8082526020820181905291810182905260608082018390526080820183905260a0820183905260c0820183905260e0820183905261010082015261012081018290526101408101829052610160810182905261018081018290526101a081019190915290565b6040518060c001604052805f81526020015f81526020015f6001600160a01b031681526020015f151581526020015f81526020015f81525090565b80358015158114614d7b575f5ffd5b919050565b5f5f60408385031215614d91575f5ffd5b82359150614da160208401614d6c565b90509250929050565b6001600160e01b0319811681146115cb575f5ffd5b5f60208284031215614dcf575f5ffd5b813561134981614daa565b5f60208284031215614dea575f5ffd5b5035919050565b5f81518084528060208401602086015e5f602082860101526020601f19601f83011685010191505092915050565b602081525f6113496020830184614df1565b80356001600160a01b0381168114614d7b575f5ffd5b5f60208284031215614e57575f5ffd5b61134982614e31565b5f5f60408385031215614e71575f5ffd5b614e7a83614e31565b946020939093013593505050565b634e487b7160e01b5f52604160045260245ffd5b5f5f5f5f60808587031215614eaf575f5ffd5b614eb885614e31565b9350614ec660208601614e31565b92506040850135915060608501356001600160401b03811115614ee7575f5ffd5b8501601f81018713614ef7575f5ffd5b80356001600160401b03811115614f1057614f10614e88565b604051601f8201601f19908116603f011681016001600160401b0381118282101715614f3e57614f3e614e88565b604052818152828201602001891015614f55575f5ffd5b816020840160208301375f6020838301015280935050505092959194509250565b80518252602081015160208301525f6040820151614f9f60408501826001600160a01b03169052565b506060820151614fb3606085018215159052565b506080820151614fc7608085018215159052565b5060a0820151614fdb60a085018215159052565b5060c0820151614fef60c085018215159052565b5060e082015161500a60e08501826001600160a01b03169052565b506101008201516101c06101008501526150286101c0850182614df1565b905061012083015161503f61012086018215159052565b506101408301516101408501526101608301516101608501526101808301516101808501526101a08301516101a08501528091505092915050565b5f602082016020835280845180835260408501915060408160051b8601019250602086015f5b828110156150d157603f198786030184526150bc858351614f76565b945060209384019391909101906001016150a0565b50929695505050505050565b5f5f5f606084860312156150ef575f5ffd5b6150f884614e31565b925061510660208501614e31565b929592945050506040919091013590565b602080825282518282018190525f918401906040840190835b81811015612f7757835180518452602080820151818601526040808301516001600160a01b0316908601526060808301511515908601526080808301519086015260a091820151918501919091529093019260c090920191600101615130565b602080825282518282018190525f918401906040840190835b81811015612f7757835180516001600160a01b031684526020808201518186015260409182015191850191909152909301926060909201916001016151a9565b602081525f6113496020830184614f76565b80518252602080820151908301526040808201516001600160a01b0316908301526060808201511515908301526080908101511515910152565b602080825282518282018190525f918401906040840190835b81811015612f77576152618385516151fb565b6020939093019260a0929092019160010161524e565b5f8151808452602084019350602083015f5b828110156152b05781516001600160a01b0316865260209586019590910190600101615289565b5093949350505050565b602081525f6113496020830184615277565b60a08101610b4682846151fb565b5f5f5f606084860312156152ec575f5ffd5b8335925061510660208501614e31565b5f5f6040838503121561530d575f5ffd5b50508035926020909101359150565b5f5f6040838503121561532d575f5ffd5b61533683614e31565b9150614da160208401614d6c565b5f5f5f60608486031215615356575f5ffd5b505081359360208301359350604090920135919050565b602080825282518282018190525f918401906040840190835b81811015612f775783518051845260208101516020850152604081015160408501526060810151606085015250608083019250602084019350600181019050615386565b5f5f5f604084860312156153dc575f5ffd5b83356001600160401b038111156153f1575f5ffd5b8401601f81018613615401575f5ffd5b80356001600160401b03811115615416575f5ffd5b866020828401011115615427575f5ffd5b6020918201979096509401359392505050565b5f5f6040838503121561544b575f5ffd5b61545483614e31565b9150614da160208401614e31565b600181811c9082168061547657607f821691505b60208210810361549457634e487b7160e01b5f52602260045260245ffd5b50919050565b634e487b7160e01b5f52603260045260245ffd5b634e487b7160e01b5f52601160045260245ffd5b8082028115828204841417610b4657610b466154ae565b5f826154f357634e487b7160e01b5f52601260045260245ffd5b500490565b81810381811115610b4657610b466154ae565b5f6020828403121561551b575f5ffd5b5051919050565b80820180821115610b4657610b466154ae565b838152606060208201525f61554d6060830185615277565b8281036040840152835180825260208086019201905f5b81811015615582578351835260209384019390920191600101615564565b5090979650505050505050565b6001600160a01b03858116825284166020820152604081018390526080606082018190525f906155c190830184614df1565b9695505050505050565b5f602082840312156155db575f5ffd5b815161134981614daa565b5f81518060208401855e5f93019283525090919050565b5f61456561560b83866155e6565b846155e6565b601f8211156115e857805f5260205f20601f840160051c810160208510156156365750805b601f840160051c820191505b818110156144e5575f8155600101615642565b81516001600160401b0381111561566e5761566e614e88565b6156828161567c8454615462565b84615611565b6020601f8211600181146156b4575f831561569d5750848201515b5f19600385901b1c1916600184901b1784556144e5565b5f84815260208120601f198516915b828110156156e357878501518255602094850194600190920191016156c3565b508482101561570057868401515f19600387901b60f8161c191681555b50505050600190811b0190555056fea264697066735822122008f463721fe820c2da755a00e870cd09a4d8c29128780964ca9d06827183b33864736f6c634300081c0033",
  "linkReferences": {},
  "deployedLinkReferences": {}
}